:4000000000200020110000001D0300001D03000010B502F067FD00F089F9C04610B51222194B1A60302002F04DFCC0229200174B1A60174B174A1A60FE210902164A1160B2
:40004000164A1A6080214900154A1160154A1A600024154B1C604223144A1360144A13604022144B1A600132134B1A6013490B2002F070FB0B2002F03DFB114B1C60002095
:4000800002F038FD10BDC04630001040080301400000014042FF00800003014040FF00800403014041FF0080280003401C010140140101400C01014004010140892B000006
:4000C0000C02074010B572B680221205134B1A60134A144B1A604923134A1360134A1360AF22134B1A601032124B1A60703A124B1A60C0225203114B1A600F22104B1A6095
:400100004432104B1A60104A104B1A600222104B1A60FFF783FF00F0EDF810BD00020240EEEE000800030240000004401800044000010440180104400002044008020440EF
:400140001802044000030440A46D1800080304401804044010B5064C2378002B07D1054B002B02D0044800E000BF0123237010BD7001002000000000AC420000084B10B5FA
:40018000002B03D00749084800E000BF07480368002B00D110BD064B002BFBD09847F9E70000000074010020AC420000900000200000000070B562B601F094FE00F00EF98F
:4001C00002F0AAF902F02CF9384C942040002200010001F0F9FE02228C235B00E25002F057FC3349002002F063FC00F0F7FC00F0B7FC0028FBD100F019F9002001F0E6FDCE
:400200000500002000F0DAFA060C0004040C292D2CD004D8202D07D0282D23D02AE0A02D0AD0A22D13D025E0224C200002F018F9200002F099F834E002F01AF91E4B98421D
:4002400001D11C4800E01C4802F00AF929E002F093F8194B984201D1164800E0164802F083F81EE0012001F01BFE1AE0002001F017FE16E0002000F0A1FA431C11D002F054
:40028000F7F80D4B984201D06420604302F0E8F802F072F8084B984201D06420704302F063F800F0B5FA00F099FCA0E78C020020851E000088130000112700000B4B1B68CD
:4002C000002803D080221206134301E05B005B08064A1360064B1B68002802D02022134301E020229343024A1360704780033A402800034010B50323054A1360054A1360E5
:400300002022054B1A600120FFF7D8FF10BDC0460021024030003040000E3F4010B503F087FF03680C2B00D1FEE7FEE770B50F4E0F4D13E029686B68AC68002202E001C9CE
:4003400001C30432A242FAD1E868002202E0002102C304328242FAD11035013E002EE9D103F06CFFFFF726FFFEE7C046010000006045000010B500230AE0032B03D89A00EA
:400380000849505800E008489900084A88500133232BF2D9FFF796FE80229205044B1A6010BDC046000000001D0300000000002008ED00E010B5084B1B78002B06D100F0F3
:4003C000B7F900F01BFA0122034B1A7000F050F800F0B0FD10BDC0468C01002070B5FFF7E9FF051E02D100F07FFC0500002D02D100F0F4FB0500002D02D00BE0013C00E0A4
:40040000094C00F0ADFB002801D0002CF6D1002C00D1102500F08AFA00F0D0FA002D01D101F0BCFC280070BD404B4C0070B50E4E0025002413E0630904339B000B4A9B586C
:400440001F222240D340DB0707D5300000F056F805003100200000F03BF934360134002CE9D0280070BDC046C04200008C02002070B5002309E018491A1D92008818002472
:4004800044600120404250500133002BF3D0134C01231DE06668A27E2B000C335B0000200D495852052A11D12369002B01D0F2791A7063686269120508D5012252429A82F5
:4004C000DA8207490A00E06A01F000FC34342B005D1E002BDED170BD8C020020C0420000FFFF000030B50B884A889C1A0025CD800079844200DDCC8030BDC046F0B583B0A7
:40050000070084684568837E01930026002300930BE0019A2100280000F066FA009021002800FFF7DFFF0A3401363B8B9E42F0D3009803B0F0BDC046F0B55F4656464D4689
:400540004446F0B485B082460E000B8B8A684F6809698B46F16A8846F07E01210C008440013CA146347FA140013981408C465146002903D17888B979401802E07888B97980
:40058000401A0024012109E0D388984201D3002300E00B001C430A3249002B005D1E002BF2D1634623420FD04B4623420CD05B461B78002B02D0013B5A4613705B461B78A0
:4005C000002B18D0544616E0FB795A46137073691B050DD501235B42BB82FB824346002B08D03A490A00404601F070FB002402E0002400E00024002C5FD073691B055CD5B7
:40060000B3689A467A88BB79D31A9946F17E1A00504601F0A7FA051E02D1002002F088F8012D3CD1F27E0023716A0E20684401F005FBF37E9A00D31858005044317F4A46EE
:4006400001F090FA051E02D1002002F071F8012D25D1327F0023B16A03A801F0EFFA4346002B15D0BA8A194B9A4208D103AB1A880E236B441988404601F028FB08E003ABFF
:4006800000930E236B4400220021300001F02AFB0E236B441B88BB8203AB1B88FB82012D0BD901235B42BB82FB824346002B04D006490A00404601F009FB200005B03CBCFA
:4006C00090469946A246AB46F0BDC046FFFF000070B504008A7E03000C335B0013481D5A052A04D12800FFF727FF050002E0002002F01EF823000C335B000C4AD55263091E
:400700001F2214401E3AA240002D07D104339B000649CB1859689143596006E004339B000249CB1859680A435A6070BD8C02002070B51E4C942252000021200003F0ADFD95
:400740001B4B238090231B0163801A4BA3800823638303222823FF33E25401262677164D20001E3029004431153203F08DFD8C235B00E6502000C23029005C31562203F0E3
:4007800083FD2A00103501230CE0A9682B8B04E013784B7201320A310300581E002BF7D1343523005C1E002BEFD170BD8C0200206C56000070170000B042000000280CD161
:4007C0000D490A00103234235843131808182A300278052A04D1002203E00122002300E00122002A05D15B689A8AD88A0004104301E0012040427047B04200000023024AB8
:40080000D380024A136070478C0200209801002070B500250026404B1B68032B06D102F010FA01223D4BDA8002F00FFA3B4BDC88E4B2062C23D8A300394AD3589F46012203
:40084000354B1A6001261AE00022334B1A60012615E0FFF7C3FD00222F4B1A60012501260DE002222C4B1A60012608E000222A4B1A60012603E00322274B1A600026002E7D
:400880000FD002F0DEF9254BDB88DBB29C4205D1224AD188234B0B439BB2D38002F0D5F900261D4B1B68012BB5D0022B31D11B4A1F33FF33D35CDBB22221FF31525CD2B260
:4008C000002B26D1ED39594317484118098B8A421FD21249088980B291246400095B89B2884216D034214B430F49CB189C6893009A185300E41802F0A4F9084B1A8992B206
:40090000912149005A52228892B202315A5202F09CF9280070BDC046980100208C020020EC4400000080FFFFC04200007047C046FF231940062902D0831800211971530078
:40094000195AC31859808218002313727047C04670B506000D00012305E0220029003000FFF7E6FF23005C1E002BF6D170BDC04610B534235843064B1B188A005118480082
:400980009A6894466044997EFFF7E2FF10BDC046C042000070B5050034234343064AD3181B8B04E021002800FFF7E2FF23005C1E002BF7D170BDC046C042000010B501235A
:4009C00003E02000FFF7E6FF23005C1E002BF8D110BDC0469840504380235B009A1A51434018000A7047C046F0B5474680B482B007000E00019201233EE06300985BF31802
:400A00005988884205D3431A321900251572012201E00B1A0022002A11D17D79AB420ED933191B7A3A7A934205D3220001993000FFF77EFF1FE03219013313721BE03D7969
:400A4000AB4204D97D79AB4215D8002A13D1FF23019A1340062B0ED00902331998461B79194308230122FFF7B5FF020A6300F3185A804346187123005C1E002BBDD10020B6
:400A800002B004BC9046F0BD814201D9013002E0814200D20138704770B504000D009F2808D91B4B994205D91A49280003F0D0FA002921D09F2C09D9FF235B009D4205D9C6
:400AC0001549280003F0C4FA002917D09F2C07D97E2D05D97F21280003F0BAFA00290FD09F2C0FD93E2D0FD93F21280003F0B0FA00290BD000200AE0042008E0032006E0B6
:400B0000022004E0002002E0002000E0012070BDFE030000FF030000FF01000010B54B1EDBB2032B01D8102300E00023002911D0002B11D0642253430100180003F002FA2A
:400B4000002301E0013340000928FBD90A2804D9013B02E0002300E00023D8B210BDC046024BDB68802018407047C0468C02002010B50E4BDB68DB030DD400280DD14309E3
:400B800004339B00094A9B581F220240D340DB0705D4012404E0112402E0012400E00024002C01D100F04CFE200010BD8C02002010B5084BDB68DB0307D4074B1B78012B8B
:400BC00005D100F091FD002003E0112001E00120404210BD8C0200209C01002010B50C4BDB681B0612D40024012040420BE02000FFF7BEFF002805D10022064B5A70FFF795
:400C0000D7FF04E00134002CF1D000E0112010BD8C0200209C010020F8B54F464646C0B401280BD0022804D0002399460633984607E0052399460023984602E0002399465F
:400C40009846144C00251FE001F0FBFF2268136821698B43136066683268A77E0721B9408A434146B9400A433260227E494691400B4322681360A268136861698B431360A2
:400C800001F0E3FF1C3401350D2DDDD90CBC90469946F8BD644300007047C046074A084B1A6001380002074B1860054B1B68002BFBDB054A024B1A607047C046400000400B
:400CC000000001400003014040FF008010B5031E01D1002000E00120002803D15521180000F006FF10BDC04670B50024002504E02000FFF7EBFF05430134002CF8D028009A
:400D000070BDC04634235843024B1818436898897047C046C042000034235843024B18184368D8897047C046C04200000203121A01238B40013B9A4205D90202101A834243
:400D400003D3052002E0062000E00020C0B27047F0B583B004000F00FFF7D4FF06003988002200F09BFB010001903000FFF794FE051E04D170003988FFF7D8FF05002900B6
:400D80003000FFF7CBFE0001C0B228433874342363430F4AD3189B7E043BDBB2012B15D82000FFF7B9FF06000199FFF775FE041E04D170003988FFF7B9FF04002100300079
:400DC000FFF7ACFE0001C0B22043787403B0F0BDC042000010B5002408E034236343054AD31859682000FFF7B3FF0134002CF4D010BDC046C0420000F0B55F4656464D462B
:400E00004446F0B483B00190284C2368F0273B400093274D2B680221894619408846254E336838218B4619408A4601F00AFF2368BB43236001F009FF01F003FF2B68494607
:400E40008B432B6001F001FF01F0FBFE336859468B4330221343336001F0F7FE6B46988801F09CFD01F0EDFE336859468B4351460B43336001F0E9FE01F0E3FE2B68494692
:400E80008B4341460B432B6001F0DFFE01F0D9FE2368BB43009A1343236001F0D6FE03B03CBC90469946A246AB46F0BD00040240000404400804044070B505000E0014009D
:400EC00001F0BFFE2B685C4034405C402C6001F0BCFE70BD10B5064A136801218B4313600022EF310348FFF7E7FF00F097FC10BDA8020C400004024010B504000C4B1B7806
:400F0000834214D0012B01D1FFF7E4FF012C05D100F0D8F90122064B1A7008E0022C06D0042C04D0032C02D00022014B1A7010BD9C01002010B5FFF74DFF0020FFF76CFE75
:400F400000212823FF33054AD1540020FFF7D4FF0120FFF7D1FF002010BDC0468C02002001390843014B18607047C04600020C4010B50F4B1B68702293431C000D4B197F84
:400F80000D4802F0DFFF0D4B984204D820232343074A13600BE00A4B984204D830232343034A136003E040232343014A136010BD940000208C020020006CDC02001BB7006D
:400FC00000366E01034A044B1A60C5225204034B1A60704700008F01C0010C40C4010C40F0B5474680B482B0050034234343224AD3185A689C68138801279F40013F0A2920
:4010000002D908000A3800E000200A23984688444346642B01D9642398467843642102F091FF060040467843642102F08BFF020000270023019313E04B00185B864208D81A
:401040000B00824201D207E00123591E002BF3D104E00623019301E0062301930A34013734236B430449CB181B8B9F42ECD3019802B004BC9046F0BDC0420000F8B54F465B
:401080004646C0B4060045688468EB7A9946984601237F20002716E06B185A7A974200D21700904200D80200B37E043BDBB2012B07D86B189B7A9F4200D21F009A4200D9A3
:4010C0001A000B001000591E002BE5D100210CE0A3185B7A984200D91800130000E001235A1E002BF4D10A340131338B9942F6D34346002B14D0132814D80E494B46DA0029
:401100008A185068013BDB00CB18596802F01AFF47437E2F08D84E46013EEE72012004E0002002E0002000E000200CBC90469946F8BDC04608450000F0B55F4656464D4620
:401140004446F0B483B00600894643689B461B8801229A401300013B01930123A6E05B461B195B7A9A46B3686200D05A5546002208E01919497A8D4202D96000C05A0D0084
:401180000A330132F17E8A42F3D364235843019902F0D8FE64306843494602F0D3FE824500D382465B461B1952465A72B56800271CE06300585B64235843019902F0C2FE4A
:4011C00064302B195B7A58434B4652465343984203D22B1900225A7206E0C01A3230642102F0B0FE2B1958720A350137F37E9F42DFD3B27E043AD2B2012A56D85A46121921
:40120000927A90469900C9184A00B1688C4662446100885A454608E01119497A8D4202D96000805A0D000A320133318B8B42F3D364235843019902F085FE64306843494625
:4012400002F080FE804500D380465B461B1942469A72F37E9A00D3185D00B3689C46654400239A461EE06300585B64235843019902F068FE64302B195B7A58434B464246B2
:401280005343984203D22B1900225A7206E0C01A3230642102F056FE2B1958720A3501239C46E244337F9A45DDD323005C1E002B00D054E703B03CBC90469946A246AB4604
:4012C000F0BDC046F8B5344B2822FF329A5C93214900585C824208D0FFF79EFC2E4B93225200995C2822FF3299540120FFF784FDC0221203294B1A60294D2B68294E334371
:401300002B600024284B1C60284B1C60284B1C60284B1C60284B1C60284B1C60284B1C60284F3C60284B1C606022F0212748FFF7C3FD002202212648FFF7BEFD254A13686D
:40134000802149010B43136080225200224B1A602B6833432B6080235B04204A13602049204A1160204A14603B60FFF72BFE0A4B187FFFF793FCFFF7FBFD1C4B1B681C4AE8
:4013800013431C4A13600F221B4B1A601B4B1C60053A1B4B1A60F8BD8C02002004020C40A8020C4001000010F4000C40B4020C40C0020C4020030C4084010C4088020C40CA
:4013C00080020C4084020C4080010C40000402400004044094020C40A0020C40A4020C404112000088010C4090020C40940000200010008000000C4000030C40F0010C400E
:4014000010030C4070B50500C37ADB001A4A9C5801F017FC194B1A68194B1340194A127834214A4318498A18D17E184A1278D2B2914205D8164A1278AD18AA7A134304E0C4
:40144000134A1278AD186A7A134323430B4A136001F0FBFB01F0F5FB0E490A68084B13400D4A15680A4A1278AA18527A134323430B6001F0EAFB70BD08450000C0010C405D
:4014800080FF3FFC9F010020C04200009E01002038450000C4010C40B403002010B50300140001208840102900D11D38002B02D0190002F047FD053C012C00D84008002866
:4014C00000D1013010BDC04610B5194C2278194934235A438A18506822785343CB18DA7E154B1B78DBB29A4201D8C18900E081890F4B1B78342253430E4AD318DA7E0E4B02
:401500001B78DBB29A4201D8437C00E0037C18045A1F012A02D8802292041043053B012B02D8490800D10131FFF71AFD10BDC0469F010020C04200009E01002010B50200D1
:401540000B4B1B7834214B430A49CB18D97E0A4B1B78DBB2994201D8C08900E080891188127CFFF79BFF0004000C044B186010BD9F010020C04200009E01002014030C4078
:4015800010B50D2001F0C0F801222D4B1A6000232C490B602C490B602C490B6006202C490860FA302B4908602B490A60832149002A4A11602A4A136003222A4B1A60F023F1
:4015C0005B0000E0013B254A1268520701D4002BF8D1002B02D10822224B1A60832252001E4B1A600D2001F099F80D2001F082F80023184A1360144A1360144A1360144A41
:4016000013605021144A11604F390E4A11600C4A1360154A1368802149040B43136002220F4B1A60F0235B0000E0013B0F4A1268520701D0002BF8D10D4A0A4B1A6010BDEE
:4016400080010C408C010C40B0020C40B4020C4088020C4080020C40F0010C40F0000C40F8000C4040030C4000020C4000000C400103000010B50B4B1B78342253430A4A48
:40168000D3185868FFF75AFFFFF71EFF074AD36807490B43D3600A2001F080F9FFF770FF10BDC0469F010020C04200008C0200208000010070B50400857E067E01F0C1FAA7
:4016C00023681B680F22B24093431A000423B3401343666832680721A9408A4332602268136001F0B2FA70BDF0B5474680B4224B1B7834225343214AD3185B689846204B06
:401700002822FF329A5C93214900585C824208D0FFF782FA1A4B93225200995C2822FF329954184C00232370134F3B78134D34267343EB1899682378DBB29A00D3185A0006
:401740008A18114B1A604046FFF75CFE3B785E4370592278D2B2D3009A1A9300C0180B4B1860FFF7A7FF0A4800F00EFFFFF782FF04BC9046F0BDC0469F010020C0420000B3
:401780008C0200209E010020B4030020B8030020892D000010B534235843054BC058CB00591A8B00C018034B1860FFF783FF10BDC0420000B8030020F8B50400067E857E74
:4017C00001F03FFA636819680723AB40994327683B680F22B24093433B602822FF320E4FBA5C002A05D10623AB4019436368196008E0022A06D10332B24013436268116077
:4018000022681360A1680B68647E0122A24093430B6001F01AFAF8BD8C02002010B5064B1B78012B06D1054B1868FFF7C5FF0022014B1A7010BDC046A0010020B803002002
:40184000F8B5104E34273B004343F3185D68C0B20D4C20700120FFF74FFBFFF7DFFF23787B439A59094B1A60094BDA687F218A43DA602178DA680A43DA602800FFF75EFEAE
:40188000F8BDC046C04200009F010020B80300208C02002070B534234343134AD3185D68C9B2124C217099682378DBB29A00D3185A008A180E4B1A60FFF7C2FF2800FFF757
:4018C000A1FD2378DBB20B49DA00D31A98000B689C4660440860FFF7EDFE0122064B1A70064800F051FE70BDC04200009E010020B4030020B8030020A00100205D2D0000B7
:40190000F0B55F4656464D464446F0B485B0019034224243734B9A1853689A461F000937012305E0002303A8835402A8835413005A1E002BF6D153461A8801239340013BDB
:4019400059430800642102F0FDFA81463423019A5343644AD3189B7E043BDBB2012B02D90023984601E00123984603AB9B4600267AE03423019A53435A4AD318DB7E9E423E
:4019800006D14346002B03D057460A3702AB9B463423019A5343534AD3189D68B3009B195A00AD18012304E04023BB54A9184B7213005A1E002BF7D1402431000198FFF728
:4019C00069FF0120FFF718FAFFF754FE464B00E0013B464AD26812060DD5002BF8D101330AE053005B5B994503D9B9180B78A3430B70130000E001235A1E002BF1D164082B
:401A000001330FE0B9180B782343DBB20B70A8184372002C05D10B78002B02D101330B70437213005A1E002BECD1002CC5D1013307E05B469B181878B95C884200D21970F7
:401A400013005A1E002BF4D131000198FFF722FFFFF710FE244B00E0013B244AD268120601D5002BF8D101363423019A53431D4AD3181B8B9E4200D27BE7012327E003AB4D
:401A80001B5D5246121953724246002A1ED002AA105D524612199072524691894B43D2895043834208D202F04DFA7F2800D97F2053461B19587209E01100180002F042FAAC
:401AC0007F2800D97F2053461B19987223005C1E002BD4D105B03CBC90469946A246AB46F0BDC046C0420000004C1D008C02002070B504000D0034264643174BF618174B91
:401B0000DB68DB0324D473680422DA7229002000FFF7F6FE3000FFF7B1FA0028F6D129003000FFF709FB2000FFF78AFEFFF7DCFD0B4B00E0013B094AD268120601D5002B74
:401B4000F8D1002B06D029002000FFF749FA02E0112000E0102070BDC04200008C020020006CDC02F0B50024334B1C700400002600230BE0E588954206D9AE4204D22E4E5F
:401B80003371012737702E000A3401338B42F1D3294B1B78002B46D14AE0274FBB181B799E00F61874000519ED88AC465600B61875007D1966466E81002B12D18D006D18A2
:401BC0006C000A3C0419E6885500AD186C003C19268101339D00EB185D004519EB88A3811FE04D1EEDB2AB420BD10A3C0419E5885400A4186300104CE3181D81C4889C818D
:401C00000FE00A3C0419E6885500AD186C000A4D2C19268101339D00EB185D004519EB88A381013200E00022034B1B789A42B4D3014B1878F0BDC046A4010020F0B55746E6
:401C40004646C0B483B082460F000192984600252DE01B4B5B191C79002C07D16A0052195300174AD31800221A810AE0019B013B9C4206D16A0052195300114AD31800220C
:401C80009A816E00721953000D4AD3189A891989501A5B89C9185118784302F0DDF97C43444400197F30000A534698530135044B18788542CDD303B00CBC90469A46F0BDA4
:401CC000A4010020002800D00180704770B504001500002805D0FFF7F5FFA01C2900FFF7F1FF70BDF0B54F4680B41D001F88069B1E884369C46A92009146A144890064182C
:401D00001B060DD54B4619883800FEF7BDFE87B227804B4659883000FEF7B6FE86B266802F80069B1E8004BC9146F0BD10B534234343184AD3189B7E052B27D12F334343F3
:401D4000D3185A685B691B0523D5948A124B9C4205D0D48A9C4202D001234B7201E000234B7201238B72938A0B80D38A0A4A934206D034225043074A1018028CD31A9BB2AD
:401D80004B8001235B428B80CB8002E0002000F0CFFC10BDC0420000FFFF000010B5094800228E235B00C250074B5A729A721A72013A1A805A809A80DA80C23002F07CF830
:401DC00010BDC0468C020020B401002070B5041E44D1284D2900FFF7A9FF2B7A002B0DD0012B36D1234B5B7A002B39D10022214B1A72214802F060F8002034E01D4B587A62
:401E00009B7A984204D901221A4B1A72FE202AE08E235B00194AD158164A00F0C3FBF0230340A02B03D1A622124BDA6008E0114BDB68A62B04D12F2802D100220D4BDA6095
:401E40000300B03B062B0ED80A4BDB68002B09D109E00122074B1A72FE2004E0FF2002E0FE2000E0002034236343054AD3185B68987470BDB40100204E0300208C0200208E
:401E8000C0420000054B8C2252009A588E2149005858844662445A507047C0468C02002004490A68D2B210239A43000118401043086070470003044010B5082000F01AFC59
:401EC00010BDC04610B500F01DF810BD10B5044A1368802109060B431360FFF7EDFF10BD0000094010B5064B1B78002B04D1FFF7E9FF0122024B1A70FFF7E8FF10BDC04650
:401F0000C401002010B500241A4B1C601A4A1B4B1A601B4B1B4A13601B4A14601B491C4A11601C4A13601C4B1C60082000F0ECFB0321082000F020FC1849082000F00AFCCA
:401F4000174B1C60174B1C605222FF32164B1A60164B1C60164B1C60164B1C60503AFF3A154B1A70154B1C70154B1C80154B1C8010BDC046000009400008004060000940F0
:401F80000701008000030940040309401000FE00100309400002094004020940F91F0000C80E0940880E0940480F0940080F0940C80F0940880F0940C0030020C403002019
:401FC000BE030020BC03002070B506000D00141E0BD0082000F098FB044B1C60044B1E80044B1D80082000F085FB70BDC8030020CC030020C203002070B5B44B1B68002B37
:4020000000D09847B24B1C88B24B1D68B24B1E680223FF331D4239D0B04A13685B005B081360AF4A137820218B431370117810230B43DBB21370AB4B1B68DB060CD4A44B8D
:402040001A88A94B1B889A420CD0A54A117808230B43DBB2137005E0A14A117802230B43DBB21370A14A1168A14B0B4013600023A04A13609B4A136002229F4B1A70974A33
:402080001368802109060B4313601BE1F30602D500229A4B1A600A23334200D1A3E0984B1B685B0769D5974B1A68934B1B78012B04D0002B22D0022B16D057E0924B1B882F
:4020C000002B0DD00121914B1960914B1B681B19D2B21A7001348C4A1388013B138048E002228A4B1A6044E00121884B1960D2B2854B1A800022804B1A703AE0824B1B882F
:402100001B021A43834B1B889A422BD201217F4B1960814B1B889A4202D29B1A9BB200E0002379490B80072B03D80121724B197014E0082B09D16D490B68A020000203435E
:402140000B6000216B4B196008E068490B688020800103430B600821664B1960624B1A80140006E00222694B1A6002E0002000F0DFFA0422694B1A6035E05C4B1B689B04E3
:4021800031D5B3070DD5664B1B681F211940574A1068574B03401360012014E00821012011E0594B1988083989B219800829F5D8002008E0564B1B681B19524A1268D2B29D
:4021C0001A70013401390029F4D1002808D1474A1368802109020B4313600022454B1A600C224E4B1A60B3074BD5EB0615D50023404A13603B4A13603B4B1B889C4201D16B
:40220000022300E00A232B40354A11780B4320218B4313700222384B1A706B062FD5304A117820230B43DBB213702F4B1B881C003C4A1268D20612D5364A1288D31A324A54
:402240001380394B1A68802149020A431A601968364A0A401A601022224B1A6002E00422244B1A600122324B1A603249194B196031490868102303430B60244B1A60154BBA
:402280001D60154B1B685B071CD51F4B1B88002B0CD01F4B1B681B191B78DBB2274A13600134194A1388013B138002E0FF22234B1A60234B1B681F221340082BE5D10F3A8E
:4022C000204B1A60024B1C8070BDC046C8010020BE030020400F0940000E094000000940C4030020880F0940BC03002060000940FF5FFFFFC80F0940C0030020880E09404E
:40230000CC0F094040030940CC0100206C000940C8030020CC030020C2030020C00F0940080309406400094004020940FFFFFEFF800E0940FF0F0000480F09404002094019
:4023400008020940800F09400004000C014B18607047C046480106400004000C014B18607047C046540106400004000C014B18607047C0464C010640024B18680004000CE5
:402380007047C0464C01064070B504000D0000F058FCAC40024B1C6000F057FC70BDC0460800064010B500F04CFC064A116802230B43136000F049FC18210220FFF7E4FFC5
:4023C00010BDC04600000640014B18607047C0467801064010B50E4C8023DB042360236823600020FFF7B0FF236823600C22094B1A600020FFF7E8FF3122074B1A60074C14
:402400002000FFF7A9FF2000FFF7AEFF10BDC0464001064064010640680106401127000010B5064B1B78002B04D1FFF7D3FF0122024B1A70FFF7B6FF10BDC046CE01002057
:402440000004000C014B18607047C046C80106400004000C014B18607047C046D40106400004000C014B18607047C046CC010640024B18680004000C7047C046CC010640BF
:4024800070B504000D0000F0DCFBAC40024B1C6000F0DBFB70BDC0460800064010B500F0D0FB064A116808230B43136000F0CDFB18210820FFF7E4FF10BDC04600000640E3
:4024C000014B18607047C046F801064010B50E4C8023DB042360236823600020FFF7B0FF236823600C22094B1A600020FFF7E8FF3122074B1A60074C2000FFF7A9FF2000CE
:40250000FFF7AEFF10BDC046C0010640E4010640E80106401127000010B5064B1B78002B04D1FFF7D3FF0122024B1A70FFF7B6FF10BDC046CF010020014B58677047C046EB
:402540000000002010B5040000F07BFB044A1168044B0B40A4031C43146000F076FB10BD0CE400E0FF3FFFFF80229201014B1A607047C04600E100E080229201014B1A6083
:402580007047C04680E100E010B50400FFF7F4FF2000FFF7D1FF0320FFF7D4FFFFF7E4FF10BDC046F0B583B00C000092C5B2280001F014FC01900600242802D10122334B80
:4025C0001A60009A2100280001F00CFB07002F4B1B68012B04D02D4B5B68012B03D101E0002700E000273B00283B012B03D80A22264B9A6006E0254B9B68002B02D0013B6A
:40260000224A9360009A2100280001F049F900280BD02F2809D04F2807D01C4B9B68002B03D10122194B5A600700002F05D02F2F05D04F2F04D1019F02E0019F00E0019FC7
:402640003B00A03B062B01D8104BDC604F2E03D02F2E01D0002F16D10C4B1B68002B02D000220A4B1A60094BDB68E41A4F2E02D0074B9C4207D9054B0022DA605B68002BB9
:4026800001D0024B5A60380003B0F0BDD0010020CF0700000C4B1B689B001C22134018330A4A1268920803210A40D34008490868084A02400A60084A944663441B78DBB2F7
:4026C000064A13607047C046080F03402800034000000740FFFFFFBFCDF1FF0F0C0F0340034B18688023DB05184000D001207047000007401F2318401E3B8340014A13605C
:402700007047C04600E100E01F2318401E3B8340014A13607047C04680E100E01F2318401E3B8340014A13607047C04680E200E001BE704770B504000D000F2802D9002058
:40274000FFF7F6FFA40080239B059C4664442068256070BD70B504000D00132802D90020FFF7E6FF1034A40080239B059C4664442068256070BDC04670B504000E00032924
:4027800002D90020FFF7D4FF132C02D90020FFF7CFFF03252540ED00063500F052FAA408A400074B9C46644421680323AB4099430B003100A9401943216000F046FA70BD65
:4027C00000E400E010B5040006E0084B586800F02FFA074B9C46644480231B029C42F4D8024B9868604300F023FA10BD980000200080FFFF70B582B000F06AF900284DD005
:4028000000F01FFA0500264B1A6892001C231A401832244B1B689B0803210B40DA400021214B1960214C2168214B0B4021494A438021C9018C466244D20B013A5205520DA9
:402840001343A0225203134323601B4B1B680193302000F0BBFA194A13688021C9050B4313602668164B1E40002407E00120FFF7A9FF1034A30533430C4A1360EE2CF5D968
:402880000120FFF79FFFFF239B051E43074B1E60019A094B1A60280000F0D7F902B070BD080F0340280003400C0F03400800074000F800C040420F003000104000000740BE
:4028C000FFFF3FC0F0B583B0040018280BD01C2809D0202807D0242805D0282803D02C2801D0302849D100F0ACF90190FFF7F8FE002803D0FFF7CEFE012600E00026214A66
:40290000136807218B4313601F4BE3181B78DBB21E4A13601E4A13688B4313601D4803687F22934319001C4BE3181B7813400B430360322000F07CF9182C16D9114F3B68E9
:402940000725AB431A0023001C3B9B082B4013433B60322000F06CF93A68AA432300183B9B082C001C4014433C60012E01D1FFF741FF019800F069F902E00020FFF7D8FEF0
:4029800003B0F0BD080F0340CDF1FF0F0C0F0340100F0340180F0340B4F1FF0F10B5034B1B7B584300F044F910BDC04698000020024A116802230B431360704710E000E086
:4029C00010B5FFF7F5FF034A116801230B43136010BDC04610E000E00002000A014B18607047C04614E000E0012805D1054A116804230B43136004E0024A136804218B432C
:402A00001360704710E000E0024B1868000C01231840704710E000E010B5FFF7F5FF01280BD107E0A300054A9B58002B00D09847013400E00024042CF4D910BDE001002062
:402A40000022014B1A60704718E000E010B5002304E0990000200B4A88500133042BF8D909490F20FFF766FE0120FFF7BDFF074B1869FA21890001F065FAFFF7ADFFFFF7EC
:402A8000DFFF10BDE0010020192A00009800002010B5064B5B69002B04D1FFF7D7FF0122024B5A61FFF78CFF10BDC046E0010020024A8300985899507047C046E0010020E3
:402AC000024B1868800F80077047C0460C020740034B1B68002B01DA012000E00020704700000740014A024B1A6070476588EDAC3800034010B50400FFF7E2FFA0421AD0B5
:402B0000144A136803218B431360134B1B689B0F01D17C2001E086204000FFF73FFF00F090F80D4A13689B009B08A40FA4071C43146000F08AF8074B1B6803229343064A18
:402B40001268920F01D1023200E001221343014A136010BD140207400C02074010B5040000F06FF8054B1C4005490B68054A134023430B600B6800F068F810BD0404040002
:402B800010020740FBFBFBFF10B5244B1B685B0715D5234B1B685B070ED5224B5969042001401F4C22688A4322605A6982435A619B68002B00D098470420FFF7CFFF174B51
:402BC0001B685B0518D5164B1B685B0510D5154B59698022D2001140114802688A4302605969114A0A405A61DB68002B00D098478020C000FFF7B2FF084B1B685B030CD5A8
:402C0000074B1B685B0304D5064B1B69002B00D098478020C002FFF7A1FF10BD10020740AC000020F8010020FFFBFFFF000000000230800803D001300238FCD1C046C0460D
:402C40007047EFF3108072B6704780F3108870470F4B1B78342253430E4AD3185B680E4A11680A04120C188801238340013B9A4206D20A4B1A680A4B1B785B00D15205E015
:402C8000064A1168064A127852008B527047C0469F010020C0420000D0000C40B40300203845000070B526480278264934235A438A18546802785343CB181A7E013A224B52
:402CC0001B78DBB29A4223D91F4D2B780133DBB22B700600037834225343CB1899682B78DBB29A00D3185A008A18184B1A60FEF7EBFB2000FEF722FC2000FEF783FB307849
:402D0000C0B22978C9B2FEF745FDFEF739FC16E000220D4B1A700E4AD1680E4B0B40D3600D4B1B78012B02D1FDF7B6FF07E0084BDA6880218A43DA601A8901321A8170BDED
:402D40009F010020C04200009E010020B40300208C020020FFFFFEFF9D01002010B583225200064B1A60FFF773FF054B1A8901321A81D968034A0A40DA6010BDF0000C40C9
:402D80008C0200207FFFFEFF10B50C4B1B78342253430B4A9C580B4B1A78D2B2D1008A1A9300E41883225200074B1A60FFF750FF2000FEF701FDFFF775FF10BD9F01002084
:402DC000C04200009E010020F0000C4070B50400FFF737FF0500102C05D8104A136803218B43136016E0202C07D80C490B6803229343023A13430B600CE0302C07D80749D1
:402E00000B6803229343013A13430B6002E00020FFF78EFC2800FFF718FF70BD300010400023034A1370034A1360034A13807047FE0300201002002032040020224B1A004A
:402E40004D321278824209D81A004E321278904204D81A004C321278D2062CD51A004F321278904209D31A0050321278904204D81A004C32127892061DD51A00513212785D
:402E8000904209D31A0052321278904204D81A004C32127852060ED51A0053321278904210D31A005432127890420BD84C331B785BB2002B06DB054B1868002802D001235B
:402EC000037000207047C046B0000020E803002030B51C4D1C4C824204D1287800282ED004202CE08B4204D12878022827D0062025E0121A5B1AD017D91712185B1842403D
:402F00004B4092B29BB29A4202D311001A000B00580119014118C9189B00CB1801212D78DB09294008009BB29A424841C0B2002902D09A429B41584207214019084020707D
:402F400030BDC046E003002006040020002801D0014B18717047C04610020020074B1A00D9895B8ACB1806495B100B80118A938A044ACB185B1013807047C04610020020C3
:402F800008040020DA030020064B1968002908D0054B1B68002B04D0044AD0890880128A1A807047F80300202C04002010020020503810B50E2813D80B4B0C4A1B88128833
:402FC0009B1ADA179B185340094A1380094B0A4A1B8812889B1ADA179B185340074A1380FFF7D2FF10BDC046F40300203404002030040020D6030020FC030020E2030020D0
:40300000074B1968002909D0064B1A68002A05D0054B588A0E330880DB8813807047C046EC0300201404002010020020084B1A68002A0BD0074B1B68002B07D012788242C3
:4030400001D0012201E01A7801321A707047C046F0030020E8030020F0B5B94B85B01B680700039100921E1E00D01E78B54B1B680193002B01D01B780193B34B00251A7832
:40308000012A03D1B14BDD691B68ED1A012F59D1AE490131CB7F002B29D1AD4BE8B21C0048342488A0421ED8012A1CD1323302931C78A84AA84B12881B88D21AD317D2181D
:4030C0005A40A2420FDA029BA44C1A78A44B24881B881B1BDC171B196340934203DAA14BCF77188003E00322984B0133DA77974B0133DB7F012B1DD1954A9748130033335F
:403100001978994B00881B881B1AD8171B1843408B420BDC954B91491B88098834325B1AD91712785B184B40934203DD0222874B0133DA77854B24240133DB7F022B1ED02F
:4031400000241CE0002F0ED1804C631CDB7F023B012B05D8FFF764FE7E4B1F80804B1F80631C00240AE0022FEAD10024FFF758FE784B1C807A4B1C80744B0133DC777C4B56
:403180001C70002C07D02000FFF750FF794B1B68002B00D01C70002F05D0002E00D027E1694B1B789EE0744B1B68002B02D01B78002B05D1714B1B68002B01D001221A70C3
:4031C000012E00D080E0624B00991A000832D28F002491422AD99A1DD28F914226D219003331614A08785C4912880988891ACC1709196140814200DD9BE034335B49187821
:40320000564B09881B885B1ADC171B196340834200DD8EE04C480378002B04D1584C2468002C00D0B0E000240133037046490B780800022B45D1464B1A004A3212889542DF
:4032400002D2FFF7EDFD3FE01A0048321288954217D2404A444F12883F883233D21BD7171C78D2197A40A2420BDA1A783F4C3C4B24881B881B1BDC171B196340934200DA2B
:403280009DE03F4B1B68002B1ED01B78002B1BD02C4B1B68002B02D01B78002B14D101230370314B20241A882A4B1A802F4B1A882B4B1A80254B039A1A600022294B1A803D
:4032C00096E0002C00D093E0019B1B0603D4022E19D0012E12D00024A64200D088E03400194B1B78012B00D082E0194B48331B889D4200D87CE0FFF793FD79E0019B3340DB
:40330000DCB2002C74D00E4B1B68191E00D019781C4B1B681A1E00D01A780D4B009D181DC08F0024854263D90233DB8F9D424ED35EE00024044B1C700A4B1C8076E7C046C7
:40334000280400201C040020FE03002010020020B00000202004002034040020FC030020E403002032040020F4030020D603002018040020F003002024040020E8030020D4
:4033800000040020DC0300202478002C00D14AE7194C2468002C03D02478002C00D042E7164B20241A80164B1980164BDA691A600022154B1A80154B01321A7036E7124B65
:4033C000104A1D80002322240B70136010E00D4B0233DB7F002B0BD1012902D1002A04D006E0022901D1002A02D0FFF719FD4024200005B0F0BDC0461C040020200400204B
:40340000E40300201002002032040020FE030020F7B508AC2488009409AC2488019490420ED3841A994205D25D1AAC4217DB022401251CE0CD1AAC4213DA0324022516E09E
:40344000141A994205D3CD1AAC420CDB042403250DE05D1AAC4208DA0124042507E00124E6E7022402E0032400E004242500FF26174F3E70174EB446012C06D1019A8918D0
:40348000994219DA00233B7016E0022C05D1009BD218012390420DDC14E0032C05D1019A9B1899420EDD022304E0009BC018904208DA03233B7005E0042D03D10723624648
:4034C000137003E063466419023C1C70F7BDC046D0030020E003002010B50400FFF7AEFC1349144B84421AD0283C012C17D8124A1278FF2A13D052001032D0B21A79824213
:4035000008D1DA1CD27F0C680132D2B2002C06D0227004E00A68002A01D0012414700A68111E00D011780333D977FFF787FC10BDE80300201002002006040020F7B5944FF6
:4035400006003B680C000192002B00D115E11B78002811D1002B00D119E18E4A8E49536AA34201D2E31A01E0DB431B190B80D369E41A019B1C600AE1002B07D1854B5C62D1
:40358000864B1B68002B01D001221A70844D2B68002B02D01A78002A23D1824AD18E824A1268A21A8A421CD3002B01D001221A70784BDA89DC617D4B1A807D4B5A887D4B35
:4035C0001A80FFF7E1FC022E00D0D9E0784B9A88794B1A80764BDA88784B1A80FFF710FD58E0012E53D16B4E019A736AE31A13603B68734F002B02D01B78002B15D1F28932
:403600006A4B1A80328A6B4B1A803B68002B01D001221A702B68002B01D001221A70624BF4611C60FFF7B0FC18E0022B16D13B68002B01D000221A702B68002B01D000227F
:403640001A70594B1C605F4B1A68002A06D0012113780B4200D080210B4313703B68002B02D01A78002A0BD12A68002A08D01278002A05D0002B01D001221A70FFF784FCC4
:40368000F289514B1A80328A504B1A807FE0022E00D07CE03B683F4E002B0ED01B78012B24D80AD1474B1A68002A06D0022113780B4200D080210B4313700022B31CDA774B
:4036C0002B68934200D01A70374BF189374A1C601180318A374A394B1180718A364A1180B28A1A80FFF750FCFFF78AFCB31CDB7F002B33D12B68002B30D01B78002B2DD0BC
:40370000284B31001800294AF58912883330521BD517047852190E316A40A24233DC254A4D8812883433521BD5171C7852196A40A24228DC204A8C8812880078121BD417EC
:403740001219624082421EDC1A781C4BC9881B885B1AD9175B184B40934214DCF1891A4A1B4B1180318A194A1180718A194A1180B28A1A80FFF7F2FB09E0002807D0FDE6B2
:40378000012E04D12FE70122B31CDA77E6E7F7BD280400201002002004040020E8030020DC030020B00000200C040020340400201E020020FC030020D8030020F6030020B0
:4037C000000400201C040020F4030020D60300200A04002010040020054B1B681A1E00D01A782F23904200D8203318007047C0462804002070B504000D0000280DD0FFF7E5
:4038000015FC2000FFF7D4FB1F4B1B68002B00D01C702000FFF79AFB05E01C4B1B78FF2B01D0FFF7B1FB2000FFF756FE184C002809D122680300002A00D013789D4202D064
:403840002800FFF7C9FF002D18D12368002B15D01B78002B12D00F4B1B68002B00D01D700D4B1B68002B01D000221A70064B1A6800239A4200D01370084A13712368002B78
:4038800000D01D7070BDC046F0030020D0030020280400201C04002000040020100200200023F0B5BC4C89B00793230003911100BA4A323313602200B94B34321A60230020
:4038C0002200B84D36332B60B74B37321A6023002200B64F38333B60B54B39321A602300220002902000B34E3A333360B24B3B321A600E30042200F0C7FC07AA03990298B9
:40390000FFF71CFEFF23AD4A1370AD4A137032683B00A24E002A04D1029B012B00D02AE135E01278012AF7D1029A012A00D022E12A68002A02D01278002A04D11B68002B08
:4039400001D001221A70E589278A9E4C9E4A23002833197818789D4B12881B880190009128003900FFF754FD944B59341B782370FF2B0CD033681A1E00D01A88884B196819
:403980000B1E00D00B8839002800FFF7A1FA8D48814A030059331B78FF2B00D1E5E0079B059313003C33197800294CD17E490968002902D00978002943D1030015002B330D
:4039C0001B78018F448F00203D3528707F48DBB200880139013C834215D8E61AB04212D2794E3688B34204D901263C3216702E7009E0CF1ABE4206D3B14204D301263C32B2
:403A0000167002222A70704A128893421BD8C91A8A4218D2604A834206D9130001213C3319703D3203230AE0E31A98420BD3844209D3130001213C33197004233D321370F6
:403A400001E003221A70544C23003C331B78012B01D000209AE023003D331B78581EC2B20392012A08D85A4B574A1D88574B1B88ED1A584B1B880AE0033B012B0DD8554B54
:403A8000524A1D88504B1B88ED1A514B1B8811885B1ADA179B18534001E000252B00494AD18F0492059A8A4203D8220002213C3202E0220003213C32117022003C32117819
:403AC0000229C6D1002B03D1013111701E002BE00026EA17A9185140B14225D09FB28AB23D483E4E97420FD309020840190000F029FA46433A4B4043F3182F2670431E1A14
:403B00002D235E43F60D0FE01B02184000F01AFA4643334B4043F3182F2670431E1A2D205A234643F60D9E1B049B002D01DA293300E02A331B78DBB29E4206D81A4B1B683F
:403B4000002B06D01B78002B03D0230003223C331A703C342378022B00D07AE7039B580004236038C0B2237010E03C321378012B00D06EE703E0029B002B00D069E7064BF9
:403B800000201A003D333C32107018700299FFF731FE09B0F0BDC04610020020F80300202C040020280400201C040020E8030020F003002000040020DC030020D00300205C
:403BC00006040020B000002034040020FC030020D6030020F403002000FFFF000AB00000BD2AFFFF0023F0B5714D87B005932B000E0011006F4A3E3313602B006E4A403315
:403C000013602B006D4A423313602A006C4B43321A602B006B4A443313602A006A4B45321A602B002A0007002800684C46332360674B47321A600E30042200F025FB31005F
:403C400005AA3800FFF77AFCFF23624E5A49337023688C46574A2C005A490396002B00D185E01B78012B00D081E0012F00D08BE0524B1B68002B02D01B78002B04D10B6894
:403C8000002B01D0012119701368E089218A1A1E00D01A8863461D682B1E00D02B884E4DEE790296EE7A0196029E0096FFF7B0FB039B1878FF285AD0230048331B78002BDF
:403CC00001D1831CDBB2020003215A400A4028D09B0001401943CBB21B2B05D06C2B03D0B12B01D0C62B05D12200012149321170282011E0392B05D0E42B03D0932B01D0F3
:403D00004E2B05D12200012149321170292003E02200002049321070220000214A32117018E03035297800293AD0260049363178002935D020004A302D7801788D4202D93C
:403D4000013101702CE023004B3302701A701000130032702200483213700300283B012B07D949342378002B1CD0FFF70DF9002018E022004B321378022B13D8002049347F
:403D80000133207013700DE0002FF0D12B004A331F702B004B3548331F702F70380001E00020D7E73900FFF725FD07B0F0BDC04610020020F80300202C04002028040020B9
:403DC0001C040020E8030020F003002000040020DC030020D0030020B00000200023F0B52E4C87B0059323002D4E733333602300029222002B4F74333B602B4B75321A606B
:403E000022002A4B76321A602300294A77331360220005002000274B783201911A600E300422029900F030FA0396214E012D06D92000029912300431042200F025FA05AA63
:403E400001992800FFF77AFB059A01992800FFF703F9FFF741FB002807D1230073331B78AB4202D02800FFF7B7FC002D0FD1230073331B78002B0AD03B680234E577002BD6
:403E800000D01D703368002B01D000221A70039B1B68002B00D01D7007B0F0BD10020020280400201C040020E8030020F003002000040020DC0300200100562210B51848B8
:403EC00000F0E2F90021174A174B126859628A4200D01170154A1268002A01D000211170134A11680022914200D00A701149DA610A60114A1268002A01D0002111700F4A6C
:403F000011680022914200D00A700D491A600A70991CCA77190049310A701A7110BDC046B000002028040020100200201C040020000400200C040020DC030020F00300202A
:403F4000FE030020002243088B4274D303098B425FD3030A8B4244D3030B8B4228D3030C8B420DD3FF22090212BA030C8B4202D31212090265D0030B8B4219D300E0090A4A
:403F8000C30B8B4201D3CB03C01A5241830B8B4201D38B03C01A5241430B8B4201D34B03C01A5241030B8B4201D30B03C01A5241C30A8B4201D3CB02C01A5241830A8B4257
:403FC00001D38B02C01A5241430A8B4201D34B02C01A5241030A8B4201D30B02C01A5241CDD2C3098B4201D3CB01C01A524183098B4201D38B01C01A524143098B4201D3CB
:404000004B01C01A524103098B4201D30B01C01A5241C3088B4201D3CB00C01A524183088B4201D38B00C01A524143088B4201D34B00C01A5241411A00D2014652411046D8
:404040007047FFE701B5002000F0F0F802BDC0460029F7D076E7704703460B437FD4002243088B4274D303098B425FD3030A8B4244D3030B8B4228D3030C8B420DD3FF2212
:40408000090212BA030C8B4202D31212090265D0030B8B4219D300E0090AC30B8B4201D3CB03C01A5241830B8B4201D38B03C01A5241430B8B4201D34B03C01A5241030BCE
:4040C0008B4201D30B03C01A5241C30A8B4201D3CB02C01A5241830A8B4201D38B02C01A5241430A8B4201D34B02C01A5241030A8B4201D30B02C01A5241CDD2C3098B42CC
:4041000001D3CB01C01A524183098B4201D38B01C01A524143098B4201D34B01C01A524103098B4201D30B01C01A5241C3088B4201D3CB00C01A524183088B4201D38B0025
:40414000C01A524143088B4201D34B00C01A5241411A00D201465241104670475DE0CA0F00D04942031000D34042534000229C4603098B422DD3030A8B4212D3FC2289016A
:4041800012BA030A8B420CD3890192118B4208D3890192118B4204D389013AD0921100E08909C3098B4201D3CB01C01A524183098B4201D38B01C01A524143098B4201D372
:4041C0004B01C01A524103098B4201D30B01C01A5241C3088B4201D3CB00C01A524183088B4201D38B00C01A5241D9D243088B4201D34B00C01A5241411A00D201466346AC
:4042000052415B10104601D34042002B00D54942704763465B1000D3404201B5002000F005F802BD0029F8D016E770477047C046014B18687047C0466C0100200E4B70B5B1
:4042400000251E000D4CE41AA410A54204D0AB00F35898470135F8E700F070F9084B00251E00084CE41AA410A54204D0AB00F35898470135F8E770BD48450000484500006A
:404280004845000050450000002310B59A4203D0CC5CC4540133F9E710BD03008218934202D019700133FAE7704700000000000020202020202020202020202020200000CB
:4042C00064430000AA020020C20200200000000094010020812800000E0005070700640064000000AA100000AA10000090010020800000000F004100323205010A20200473
:404300001000100000000000FFFFFFFF5608080808141414181E2814181E28030507090314181E2814181E280305070903053232003232000A2D2D0F030303030000141E47
:404340001E000300640064005000D007E8036400FA00050032000A00F02829303F4849909F0000000001024008010440000104400401044000000F001000000010040C00D6
:404380000001024008010440000104400401044000F00000080000000C03090000010240080104400001044004010440000F000004000000080206000001024008010440FE
:4043C0000001044004010440F00000000200000004010300000102400801044000010440040104400F000000010000000000000000010240080104400001044004010440E9
:404400000000F0002000000014050F00000002400800044000000440040004400F0000000100000000000000000002400800044000000440040004400000000F40000000B1
:40444000180612000000024008000440000004400400044000F00000080000000C0309000002024008020440000204400402044000F00000080000000C030900000202406C
:40448000080204400002044004020440000F0000040000000802060000020240080204400002044004020440F0000000020000000401030000020240080204400002044007
:4044C000040204400F000000010000000000000000010240080104400001044004010440000000F0800000001C0715007E0800003E080000480800005208000062080000BC
:404500006C08000076080000000000017C92000000000003F824010000004001E093040000004003C027090000008001009F240000008003003E490000430000F8B5C0462B
:40454000F8BC08BC9E4670477D01000075030000F8B5C046F8BC08BC9E467047550100007045000090000020E0000000C80200000000000020000004010000000000C05DC5
:4045800080BB000030000000006CDC02040404005612121212232314181E2814181E28030507090314181E2814181E2803050709020A323200323200642D2DC80203020AF0
:4045C0001401321E1E0028004006B00450002003C8001400C8001400C8006400F02829303F4849909F00FF3FFFFF0000000000000000000000000000000000000000000013
:4046000000000000000000000000000039450000000000000000000000000000000000000000000000000000000000000000000000000000000000000000000000000000FC
:404640000000000000000000000000000C0100200000000000000000000000000000000000000000000000000000000000000000000000000000000000000000000000000D
:4046800000000000000000000000000000000000000000000000000000000000000000000000000000000000000000000000000000000000000000000000000000000000FA
:4046C00000000000000000000000000000000000000000000000000000000000000000000000000000000000000000000000000000000000000000000000000000000000BA
:404700000000000000000000000000000000000000000000000000000000000000000000000000000000000000000000000000000000000000000000000000000000000079
:404740000000000000000000000000000000000000000000000000000000000000000000000000000000000000000000000000000000000000000000000000000000000039
:0200000490303A
:0200000002A656
:0200000490402A
:4000000000000000000000000000000000000000000000000000000000000000000000000000000000000000000000000000000000000000000000000000000000000000C0
:0200000490501A
:0C00000000021B0111AB00011B17145182
:0200000490600A
:0100000001FE
:00000001FF