:400000000020002011000000510300005103000010B502F0E9FF00F0A3F9C04610B51222194B1A60302002F0CFFEC0229200174B1A60174B174A1A60FE210902164A116028
:40004000164A1A6080214900154A1160154A1A600024154B1C604223144A1360144A13604022144B1A600132134B1A6013490B2002F0F2FD0B2002F0C9FD114B1C60002083
:4000800002F0BAFF10BDC04630001040080301400000014042FF00800003014040FF00800403014041FF0080280003401C010140140101400C010140040101408D30000079
:4000C0000C02074010B572B6174A184B1A60184A184B1A60184A194B1A60194A194B1A600922194B1A604032184B1A606632184B1A601032174B1A60703A174B1A60C0226D
:400100005203164B1A600F22154B1A604432154B1A60154A154B1A600C22154B1A60FFF77DFF00F0F7F810BD0660000600000240666666600001024066660008000202403A
:40014000EEEE0008000302400000044018000440000104401801044000020440080204401802044000030440A46D1800080304401804044010B5064C2378002B07D1054BFE
:40018000002B02D0044800E000BF0123237010BD700100200000000030460000084B10B5002B03D00749084800E000BF07480368002B00D110BD064B002BFBD09847F9E7EE
:4001C000000000007401002030460000900000200000000070B562B602F004F900F018F902F026FC02F0A8FB384CA22080002200010002F069F902229E239B00E25002F08D
:40020000C9FE3349002002F0D5FE00F069FC00F029FC0028FBD100F023F9002002F05EF80500002000F032FA060C0004040C292D2CD004D8202D07D0282D23D02AE0A02DEC
:400240000AD0A22D13D025E0224C200002F094FB200002F015FB34E002F096FB1E4B984201D11C4800E01C4802F086FB29E002F00FFB194B984201D1164800E0164802F052
:40028000FFFA1EE0012002F0DFFA1AE0002002F0DBFA16E0002000F0F9F9431C11D002F073FB0D4B984201D06420604302F064FB02F0EEFA084B984201D06420704302F066
:4002C000DFFA00F00DFA00F00BFCA0E7A80300209D23000088130000112700000B4B1B68002803D080221206134301E05B005B08064A1360064B1B68002802D020221343A6
:4003000001E020229343024A1360704780033A402800034010B50323084A136080214901074A11601121074A1160074A13602022064B1A600120FFF7D1FF10BD00210240AD
:4003400094020C40C0020C4030003040000E3F4010B504F02FF903680C2B00D1FEE7FEE770B50F4E0F4D13E029686B68AC68002202E001C901C30432A242FAD1E868002210
:4003800002E0002102C304328242FAD11035013E002EE9D104F014F9FFF71CFFFEE7C046010000000C49000010B500230AE0032B03D89A000849505800E008489900084A68
:4003C00088500133232BF2D9FFF77CFE80229205044B1A6010BDC04600000000510300000000002008ED00E010B5084B1B78002B06D100F0FBF800F069F90122034B1A706D
:4004000000F050F800F0CCFC10BDC0468C01002070B5FFF7E9FF051E02D100F0F5FB0500002D02D100F05CFB0500002D02D00BE0013C00E0094C00F015FB002801D0002CA1
:40044000F6D1002C00D1102500F0DAF900F024FA002D01D101F026FF280070BD404B4C0070B50E4E0025002413E0630904339B000B4A9B581F222240D340DB0707D530008A
:4004800000F05CF805003100200000F083F838360134002CE9D0280070BDC04668460000A8030020F8B5002309E01B491A1D92008818002444600120404250500133002BEB
:4004C000F3D0164C012322E06068A27E124B5B1900211976052A18D12369002B01D0C2791A706368276B012252421A825A821A75002608E0002F05D0B000094938180A005A
:4005000001F09CFD0136002EF4D038342B005D1E002BD9D1F8BDC046A803002068460000FFFF000030B50B884A889C1A0025CD800079844200DDCC8030BDC046F0B583B04A
:400540008468038B4568877E002201920BE03A002100280000F0B6F9019021002800FFF7E1FF0A3433005E1E002BF0D1019803B0F0BDC04610B50C00080001F013FA20000E
:4005800001F0E0FA200001F0AFFB200001F086FD10BDC04670B504008A7E134B1B181D7E052A04D12800FFF7E5FF050002E0002002F040FB0C4B1B191D7663091F22144098
:4005C0001E3AA240002D07D104339B000649CB1859689143596006E004339B000249CB1859680A435A6070BDA803002070B5204CA22292000021200004F011F81D4B238094
:4006000090231B0163801C4BA3800823638303221A4BE254022323774E33E383184D230020332A006C3243CA43C343CA43C301229E239B00E250134BE01855321249043120
:4006400003F0E4FF2A002C00343401230CE0A168238B04E013784B7201320A310300581E002BF7D138342B005D1E002BEFD170BDA8030020AC160000701700008702000052
:400680003446000022020000B446000010B500280BD10D4B34331900C3001C1AE2008A18937E052B04D1002303E00123002200E00123002B05D153681A8A588A0004104385
:4006C00001E00120404210BD344600000023024AD380024A13607047A8030020D401002070B5002500263F4B1B68032B06D102F028FD01223C4BDA8002F027FD3A4BDC889B
:40070000E4B2062C23D8A300384AD3589F460122344B1A6001261AE00022324B1A60012615E0FFF775FE00222E4B1A60012501260DE002222B4B1A60012608E00022294BDE
:400740001A60012603E00322264B1A600026002E0FD002F0F6FC244BDB88DBB29C4205D1214AD188224B0B439BB2D38002F0EDFC00261C4B1B68012BB5D0022B30D11A4A6E
:40078000A0239B00D35CDBB21A49525CD2B2002B26D1D800C01AC10017484118098B8A421ED21149088980B2144C095B89B2884216D0D900CB1AD9000F4B59188C68930038
:4007C0009A185300E41802F0BCFC074B1A8992B20A495A52228892B202315A5202F0B5FC280070BDD4010020A8030020984800000080FFFF8102000068460000820200007E
:400800007047C046FF231940062902D08318002119715300195AC31859808218002313727047C04670B506000D00012305E0220029003000FFF7E6FF23005C1E002BF6D19A
:4008400070BDC04670B5094CC3001D1AEA00A21895688A0051184A00AA181B1AD9006118897E1000FFF7DEFF70BDC0466846000070B50500C200121AD300064AD3181B8B13
:4008800004E021002800FFF7DDFF23005C1E002BF7D170BD6846000010B5012303E02000FFF7E6FF23005C1E002BF8D110BDC0469840504380235B009A1A51434018000A90
:4008C0007047C046F0B5474680B482B007000E00019201233EE06300985BF3185988884205D3431A321900251572012201E00B1A0022002A11D17D79AB420ED933191B7A7F
:400900003A7A934205D3220001993000FFF77AFF1FE03219013313721BE03D79AB4204D97D79AB4215D8002A13D1FF23019A1340062B0ED00902331998461B791943082330
:400940000122FFF7B5FF020A6300F3185A804346187123005C1E002BBDD1002002B004BC9046F0BD814201D9013002E0814200D20138704770B504000D009F2808D91B4B60
:40098000994205D91A49280003F024FD002921D09F2C09D9FF235B009D4205D91549280003F018FD002917D09F2C07D97E2D05D97F21280003F00EFD00290FD09F2C0FD98B
:4009C0003E2D0FD93F21280003F004FD00290BD000200AE0042008E0032006E0022004E0002002E0002000E0012070BDFE030000FF030000FF01000010B54B1EDBB2032BC3
:400A000001D8102300E00023002911D0002B11D0642253430100180003F056FC002301E0013340000928FBD90A2804D9013B02E0002300E00023D8B210BDC04670B50D00B8
:400A40000C8800F00FFE06002100FFF793FF040001003000FFF7D0FF0001C0B22043A87270BDC046024BDB68802018407047C046A803002010B50E4BDB68DB030DD40028C1
:400A80000DD1430904339B00094A9B581F220240D340DB0705D4012404E0112402E0012400E00024002C01D100F0A6FD200010BDA803002010B5084BDB68DB0307D4074BAB
:400AC0001B78022B05D100F083FC002003E0112001E00120404210BDA8030020D801002010B50C4BDB681B0612D40024012040420BE02000FFF7BEFF002805D10022064B4C
:400B00005A70FFF7D7FF04E00134002CF1D000E0112010BDA8030020D8010020F8B54F464646C0B401280BD0022804D0002399460633984607E0052399460023984602E049
:400B4000002399469846144C00251FE002F0F9FA2268136821698B43136066683268A77E0721B9408A434146B9400A433260227E494691400B4322681360A26813686169E8
:400B80008B43136002F0E1FA1C3401350D2DDDD90CBC90469946F8BD104700007047C04610B501F07DFF10BD074A084B1A6001380002074B1860054B1B68002BFBDB054A26
:400BC000024B1A607047C04640000040000001400003014040FF0080034A13681B0B1B03013818431060704700020C4010B5031E01D1002000E00120002803D12821180062
:400C000000F02AFB10BDC04670B50024002504E02000FFF7EBFF05430134002CF8D0280070BDC04610B5002409E0E200121BD300044AD31859682000FFF700FF0134002C8A
:400C4000F3D010BD68460000F0B55F4656464D464446F0B483B001902B4E3468FF231B021C400094294F3B680C2292461A409146274C2568FC231B011D40AB4602F061FA5F
:400C80003368244A90461340336002F05EFA02F058FA3B68524693433B6002F056FA02F050FA23681C4D2B40D82212011343236002F04BFA6B46988802F0F2F802F041FA61
:400CC00023681D405A461543256002F03EFA02F038FA3B68524693434A4613433B6002F034FA02F02EFA336842461A401400009B1C43346002F029FA03B03CBC90469946E1
:400D0000A246AB46F0BDC046000402400004044008040440FF00FFFF3FF0FFFF70B505000E00140002F00DFA2B685C4034405C402C6002F00AFA70BD10B5084C0022F021A0
:400D400009012000FFF7EAFF0022F02109022000FFF7E4FF00F03EFC10BDC0460004024010B504000D4B1B78834216D0012B03D0022B01D1FFF7E0FF012C0ED0022C05D1AF
:400D800000F06CF90222054B1A7006E0042C04D0032C02D00022014B1A7010BDD801002010B5FFF73FFF0020FFF7B8FE0021054B054AD1540020FFF7D3FF0220FFF7D0FFBE
:400DC000002010BD87020000A8030020F0B5474680B482B005008846C100091ACB001F49CB189C68142A02D91000143800E0002014321700642A00D96427434658436421DC
:400E000003F062FA060040467843642103F05CFA010000230193002713E05300185B864208D81300814201D207E001235A1E002BF3D104E00623019301E0062301930A3476
:400E40000137EA00521BD300044AD3181B8B9F42EBD3019802B004BC9046F0BD68460000034BDB8B0288981E504380B27047C046A803002010B5394B1B685B685A7A384B2F
:400E80001968384B1B78CB185B7A7F210B4036490B43D200354952581343354A13600022344B5A80344A354B1A600122344B1A601123344A136080214904334A1160334A5C
:400EC00013600622324B1A60324A334B1A60334A334B1A60334A344B1A60F0235B0000E0013B314A1268D20701D5002BF8D12E4B1B68DB0703D5C22292002B4B1A602B4B4D
:400F0000197F2B4803F0E0F92A4B984204D92A4B984203D8302302E0202300E04023274A1343164A1360264A264B1A60002314490B6014490B6014490B6023201349086052
:400F400013490B6014490B6015490B60832149001D4B1960144B1A6010BDC046DC01002030060020E4480000800E0F00B4480000C0010C40E40100202010048000000C4075
:400F800080010C4080020C4084020C40C0020C4088020C4001010100B0020C4010100000B4020C400303000040030C40A8030020006CDC02001BB70000366E0100100C8000
:400FC000010300008C010C40F0000C4010B50D2001F026FE83225200154B1A60154B1B689BB2154A5380154B1B689BB25188CB189BB25380518889B213889BB2994202D9E0
:4010000013889BB253800E4B1B6898470D4BDB681B0609D40C4A0D4B1A60C02292000C4B1A600C4A0C4B1A600D2001F0EFFD10BDF0000C40D0000C40E4010020D4000C40B9
:4010400094000020A80300202010048000000C408C010C40800E4F01C0010C4010B5524B524A9A5C5249585C824206D0FFF756FD4D4B4F4A995C4D4A9954832252004D4BCE
:401080001A6000244C4B1C60053AFF3A4B4B1A604B4B1C604B4B1C604B4A4C4B1A60C02292004B4B1A604B4A4B4B1A604B4A4C4B1A6050224B4B1A604B4B1C604B4B1C60B8
:4010C0004B4B1C604B4B1C604B4B1C6002F039F84A4A11684A4B0B40802149010B43136002F033F83222474B1A6080225204464B1A6002F026F8454A1168454B0B408021EA
:4011000049050B43136002F020F8424B1C60424B1C602322414B1A60143A414B1A600B3A404B1A60404B1C60404B1C60C22292003F4B1A603F4A404B1A600120FFF784FDED
:4011400001F0FFFF3D4C22683D4B1340236001F0FCFF01F0F6FF22683A4B1340236001F0F4FF01F0EEFF384C2268384B1340C022D2001343236001F0E8FF01F0E2FF2268F1
:40118000334B1340C022D2011343236001F0DDFF054C207FFFF708FDE08BFFF71DFD2D48FFF7FEFC10BDC046A80300208702000086020000F0000C40F4000C40F8000C40C9
:4011C00080010C4084010C40411F000088010C408C010C40800E4F01C0010C40AA000500F0010C4000020C4004020C4080020C4084020C4088020C4090020C4094020C4096
:40120000FFEFFFFFA0020C40A4020C40A8020C40EEFFFEEEB0020C40B4020C40C0020C4000030C4010030C4014030C4020030C4040030C402010048000000C4008040440A6
:401240003FFEFFFFFFF1FFFF00040240FFF0FFFFFF0FFFFFCD0F0000F0B55F4656464546E0B482B001908B46C3001B1ADA00404CA418A3689A463F4B52461A606068FFF732
:40128000EFFD3D4B188018885B465843642103F01BF80600E37E257F5D43002109E0354A0023106803801368402058720A3313600131A942F3D3202440270023984600E0A5
:4012C0001C000198FFF7D6FBFFF7F4FB2B4B02E0002B05D0013B2A4AD2681206F8D401E010239846234B52461A6000210EE0214B1B681A88964202D25A7ABA435A725A7A38
:4013000022435A720A331B4A13600131A942EED36308DBB2002C03D027004246002ACFD00198FFF7A7FBFFF7C5FB4346002B04D016E0002B07D0013B00E0104B104AD268A8
:401340001206F6D401E0102398464346002B07D1094B198889B25A460198FFF737FD8046404602B01CBC90469A46A346F0BDC0466846000030060020E4010020004C1D00E0
:40138000A803002010B50400837E06229A40072199404068FFF7C2FC237E04229A400F2199402068FFF7BAFC10BDC04610B50400837E0721994000224068FFF7AFFC237EB1
:4013C00006229A400F2199402068FFF7A7FC10BD10B51A4B1A4A9A5C1A49585C824206D0FFF79CFB154B174A995C154A99540022154B1A70154B1B68154A996811601A7FD7
:40140000144CA280DA7EE2801968A160D300981A80000818E060FFF7B5FFA068FFF7C6FF0D4A0E4B1A60054AD16880230B43D3600A2001F035FDFFF71DFD10BDA803002051
:401440008702000086020000E0010020DC01002030060020E4010020F91400009400002070B5040001F06DFE2268136821698B43136001F06AFE01F064FE61680B68A47EE2
:401480000722A2409343064A064DAA5C002A02D10632A24013430B6001F057FE70BDC04687020000A803002070B5040001F049FE2268136821698B43136001F046FE01F0A6
:4014C00040FE61680B68A57E0722AA409343084A084EB25C002A02D10632AA4013430B60A268136861698B43136001F02EFE70BD87020000A803002010B52F4B19682F4B68
:401500001B782F4C228860885B00121A5A52E068FFF7A6FF2B4A13780133DBB21370A388013B9BB2A380002B0CD0254BD8681C30D860FFF727FF204A13680A331360FFF7F8
:4015400099FC37E01E4AD388013B9BB2D380002B1DD014009068FFF7A7FFA0681C30A060FFF724FF184B1B681A7FA2801868E060DA7ED3009A1A9300C018E060FFF702FF11
:401580000D4A13680A331360FFF774FC12E00C4B9868FFF789FF0D4B1B78002B02D0FFF7FDFA07E00A4B1A8901321A81DA6880218A43DA6010BDC04630060020E4480000BB
:4015C000E4010020E0010020DC010020D9010020A803002010B5074B1B8A002B08D0054CE068FFF73DFFA068FFF75EFF0023238210BDC046E401002070B50400C2B2124BA4
:401600001A700220FFF7ACFBFFF7E4FFE000001BC2000E4BD3180E4A13605E680D4DEC8B32880D4B1A603000FFF71AFC0B4B1880B37A013C2405240D1B041C43084B1C605E
:40164000287FFFF7B1FA70BDE101002068460000DC010020A803002014030C40E401002000020C40014BD88B7047C046A8030020F0B54E0073189C001419677A45002D18DE
:40168000AB000D4DEB185F72E4880134DC8071188B00D3189B7A9A0606D0420010188200AA18013B937205E042001018820002498A189372F0BDC046F8010020F0B5440063
:4016C0002418A300184CE3189B88934206D2430018188300E31881225A7223E0124B3E229C5C01329A5C2243002303E0D50704D552080133042BF9D98223FF221A400126A5
:40170000350095402A00084D14433E22AC5444002718BA00AA185372D68013008022524211439972F0BDC046F8010020F0B54D006C18A3009B5A9C46094E47003C18A30056
:401740009B5B6446E41A69188D0055196A8838188300F3185B88D31A64435B43E018F0BDF8010020F0B583B0060001913C231C4AD25CCB5C9A422DD3130013E03C23019A46
:40178000D35C0BE0AA0052199300F418019A39002800FFF7CBFFBB0018513B005F1E002BF0D12B005D1E002BE8D116E03C230C4AD35C0BE0AA0052199300F418019A290010
:4017C0003800FFF7B3FFBB0018513B005F1E002BF0D12B005D1E002BE8D103B0F0BDC046F80100200B8803804B8843800B7A03728B8883804B7A4372CB88C3808B7A837272
:401800007047C046F0B55F4656464D464446F0B48FB000900F0003929A461D006435782353449B4654467D34564682368A00002109A802F0F4FE009B019306E09300002180
:4018400004A81950FF23B35413005A1E002BF5DC3B000027B4468AE0E21800211170FF22C2549A004E49A9501A0001E0019A5846531E002AF0DC8346029E01235B4299463C
:401880005EE0B30009AA9B589846019A01277F42009622E0E256002A1ED19900C8188200524400988000825804AE8859121A4046121A69180868824203DA0A605A46484628
:4018C000D0547A1C05D00968BA005259914202DB02E01F0000E01F001A00531E002AD9DCB846BB00E858019B6146BC4616E0A356002B0DD08E5609ABB600F7583F18F750F9
:40190000960004ABF35800931B1A04AFF35104E09300EB181E68361A1E6013005A1E002BE5DC67468C4609AB029A9200D15889464844D05001234246A35463469E56B946CF
:40194000731C9ED15E46A046604603E08356C3550027CF573B00F11900228A56541CF5D1B3464446844602000298D05403005A1E0292002B00DD79E76646019A039904E050
:40198000F256501C00D08B541A00531E002AF7DC0FB03CBC90469946A246AB46F0BDC046FFFFFF7FF0B55F4656464D464446F0B442688168538892799B1A9BB29C46C37E83
:4019C000013BDBB29846067F751EEDB200203C235B4AD05400239B46A9E0C888844501D8002300E00123002B2ED15C46002C2BD0AA4209D2AC00A146A9444C4664000C1B44
:401A0000E488A04200D80133002B0AD1B400A146B1444C4664000C1BE488A04203D9340003E02C0001E034000123002B0CD10134E4B2002A08D0A700B9464C4464000C1B5D
:401A4000E488A04200D80133002B2FD1C3452DD2741CE4B2AA420BD2A700BA46A24457467F00B94689444F46FF88B84200D20133002B0CD1B400A146B1444C4664000C19A7
:401A8000E488A04201D3340001E034000123002B0CD1013CE4B2002A08D0A700B9464C4464000C19E488A04200D20133002B05D1AA4203D20C8AA04200D20133002B07D164
:401AC000002A05D00C000A3CE488A04200D80133002B20D13C331A4CE35C042B1BD85F00B9464B449B005F461F533C239946E35C5F00BA4653449B00E3185A804B46E35C97
:401B00005F00BA4653449B00E31898804B46E35C0133484623540A310132D2B200E00022AA4200D859E75F460137FBB29B46C345F5D93CBC90469946A246AB46F0BDC04686
:401B4000F8010020F0B55F4656464D464446F0B48BB08046C37E013BDBB20393037F013BDBB2029300230193AEE043469D68019F3E005C497A00D01983001800CB185C8809
:401B8000435A4246127F5343E3189A00D3185C00A446002248E073009B199900514BCB5A013B10009B1802D403998B4237DD05AB47000021F952C71C7F00F9520630400070
:401BC000C1522FE071008C19A100464C6118498801391F00C91802D4029CA14207DD7900C91909184900002705AC0F5314E0511E4446247F614359188C0061184C002100A5
:401C00000A3961446918C98889465900C9180918490005AF4C46CC530133DBB200E00023022BCFD90132D2B2022AB4D9002400250020002114E04B005B189B185B0005AF0B
:401C4000DF5BE419531E7B43C0184B1E7B43ED180132D2B200E00022022AECD90131C9B20229F8D943465B6A9B465843210002F0B5FB1C4B994673009A469A1993004A46AB
:401C80009B5A5A465343C0187F30000A53469A1993004A46D05243469B6A9B4618006843210002F09BFB53469B199A004A44538859464B43C0187F30000A5080240914726B
:401CC000019F0137FBB201933C23064AD35C019A9A4200D249E70BB03CBC90469946A246AB46F0BDF8010020F0B55F4656464D46E0B486B04568C36A9A463C23BC4AD75CD8
:401D00006C88AB79E418A3B20093002F05D13C235246D35C002B00D183E1B54B00223E215A5401315A540CE0510089188B005344597A01238B40AE483F21465C3343435446
:401D400001323C235146CB5C9A42EDD3A84E483603239E43002F09D1D0E04A0052189300A34AD31828225A720C0000E00524611E002CF2D13C235246D35C002B06D008E07C
:401D8000E979009A2000FFF799FC0134BC42F7D358E09F4258D3012F07D1012B05D100213F33934AD154260034E051463000FFF7D9FC3C235246D15C33008D4A40323800F8
:401DC000FFF720FDEFE7EB689B46894B9B1940331B785BB25246310001931800FFF7A6FC834505D2E979009A0198FFF767FC10E072009219930053445A7A012393407C49CA
:401E00003E22885C03438B54524631000198FFF72FFC01363C235246D35C9E42D3D39F420ED80FE0620012199300714AD3185B7A282B04D1E979009A2000FFF73FFC0134D8
:401E4000BC42EFD3002354E051463000FFF78AFC3C235246D05C3300654A40323900FFF7D1FC25E0EB689946614B1B19403300269E57524631002000FFF758FC814505D220
:401E8000E979009A2000FFF719FC10E062001219930053445A7A0123934055493E22885C03438B54524631002000FFF7E1FB0134BC42D7D3C6E75900C9188A004C498A1842
:401EC000927A51B2002913DA3F211140012908D85800C018810046484118402002408A7206E05900C9188A0041498A180021D18001333C223E498A5C9342DCD33C233C4A1C
:401F0000D35C002B04D13C335246D35C002B6AD03C23374AD75C002423E0620012199300334AD3185B7A042B1AD97B1E15E05900C9188A002E498A18527A042A0BD80800CE
:401F40005A00D31899004118620012199300C018FFF748FC03E0013F013B9C42E7D3013F0134BC42D9D33C23214AD754002638E0731C01931C0031E01D48710089198A005D
:401F80008218D188620012199300C318DB8899420CD322D1710089198A008218517A620012199300C3185B7A994216D9104D73009B199A00AB180093190003AA1000FFF747
:401FC00011FC63001B199A00AD1829000098FFF709FC03A92800FFF705FC0134A742CBD8019EBE42C4D33C23014AD35C0DE0C046F801002063001A1991000D4A51181B1960
:4020000098005044FFF7EEFB23005C1E002BF1D1074B3C22995C504681540232995C0132995406B01CBC91469A46A346F0BDC046F8010020002800D00180704770B504005F
:402040001500002805D0FFF7F5FFA01C2900FFF7F1FF70BDF0B54F4680B41D001F88069B1E884369046B92009146A144890064181B060DD54B4619883800FEF773FC87B27B
:4020800027804B4659883000FEF76CFC86B266802F80069B1E8004BC9146F0BDF0B55F4656464D464446F0B485B083464668036B98460023180008E05900C9184A00B2181A
:4020C000517D01228A4010430133002BF4D082460023994600247CE03C23434AD35C9C4262D26200121993003F4AD318DB88002B5AD01000620011198B00195A0E236B4472
:40210000198012199300C3185A8803A802805B7A5046D8400300DB073FD4334F65002B195B00F31819822D19A800381845885D82057A1D75407A58754346002B30D0A000E1
:402140004044FFF77BFF2BE0620012199300264AD318597A6A0052195300F3185B7D994219D103AF00970E236B442A0021005846FFF770FF61000A195300F3186A46D289DE
:402180001A823A885A8209198A0017498A18117A1975527A5A75013500E00025002DD3D001239C46E14413E0620012195300F318012252421A825A821A7529325A754346FE
:4021C000002B05D0A000094940440A00FFF736FF0134002C00D17FE7484605B03CBC90469946A246AB46F0BDF8010020FFFF000070B5C200121AD300264AD3189B7E052B85
:4022000044D1C200121AD300224AD3185C68224B1B181A7E4A72238A0B80638A1F4DAB4207D0C500281AC5001A484519288CC31A9BB24B8001238B72023B8B80CB80012A50
:402240000AD1174B1B78012B08D1154B1879637D984205D1002504E0002502E0002500E001250F4B1A70002309E05800C0184200A218507D0A4AD21810710133DBB2002B39
:40228000F3D0002D05D003234B7202E0002000F0D1FC70BD68460000A8030020FFFF0000C802002010B50A4800229F239B00C250084B5A749A741A74013A1A815A819A81F8
:4022C000DA81054B9C46604401F0B8FF10BDC046A8030020C80200202202000070B5041E46D12A4D29000831FFF782FF2B7C002B0DD0012B37D1254B5B7C002B3AD1002229
:40230000224B1A74224801F099FF002035E01F4B587C9B7C984204D901221C4B1A74FE202BE09F239B001B4AD158184A083200F0C5FBF0230340A02B03D1A622134B5A6120
:4023400008E0124B5B69A62B04D12F2802D100220E4B5A610300B03B062B0ED80B4B5B69002B09D109E00122084B1A74FE2004E0FF2002E0FE2000E00020E200121BD3003A
:40238000054AD3185B68D87270BDC046C8020020CA050020A803002068460000054B9E2292009A589F2189005858844662445A507047C046A803002010B5082000F026FC23
:4023C00010BDC04610B500F01DF810BD10B5044A1368802109060B431360FFF7EDFF10BD0000094010B5064B1B78002B04D1FFF7E9FF0122024B1A70FFF7E8FF10BDC0464B
:40240000E002002010B500241A4B1C601A4A1B4B1A601B4B1B4A13601B4A14601B491C4A11601C4A13601C4B1C60082000F0F8FB0321082000F022FC1849082000F00CFC98
:40244000174B1C60174B1C605222FF32164B1A60164B1C60164B1C60164B1C60503AFF3A154B1A70154B1C70154B1C80154B1C8010BDC046000009400008004060000940EB
:402480000701008000030940040309401000FE00100309400002094004020940F9240000C80E0940880E0940480F0940080F0940C80F0940880F09403C0600204006002011
:4024C0003A0600203806002070B506000D00141E0BD0082000F0A4FB044B1C60044B1E80044B1D80082000F091FB70BD44060020480600203E06002070B5B44B1B68002B9F
:4025000000D09847B24B1C88B24B1D68B24B1E680223FF331D4239D0B04A13685B005B081360AF4A137820218B431370117810230B43DBB21370AB4B1B68DB060CD4A44B88
:402540001A88A94B1B889A420CD0A54A117808230B43DBB2137005E0A14A117802230B43DBB21370A14A1168A14B0B4013600023A04A13609B4A136002229F4B1A70974A2E
:402580001368802109060B4313601BE1F30602D500229A4B1A600A23334200D1A3E0984B1B685B0769D5974B1A68934B1B78012B04D0002B22D0022B16D057E0924B1B882A
:4025C000002B0DD00121914B1960914B1B681B19D2B21A7001348C4A1388013B138048E002228A4B1A6044E00121884B1960D2B2854B1A800022804B1A703AE0824B1B882A
:402600001B021A43834B1B889A422BD201217F4B1960814B1B889A4202D29B1A9BB200E0002379490B80072B03D80121724B197014E0082B09D16D490B68A0200002034359
:402640000B6000216B4B196008E068490B688020800103430B600821664B1960624B1A80140006E00222694B1A6002E0002000F0E1FA0422694B1A6035E05C4B1B689B04DC
:4026800031D5B3070DD5664B1B681F211940574A1068574B03401360012014E00821012011E0594B1988083989B219800829F5D8002008E0564B1B681B19524A1268D2B298
:4026C0001A70013401390029F4D1002808D1474A1368802109020B4313600022454B1A600C224E4B1A60B3074BD5EB0615D50023404A13603B4A13603B4B1B889C4201D166
:40270000022300E00A232B40354A11780B4320218B4313700222384B1A706B062FD5304A117820230B43DBB213702F4B1B881C003C4A1268D20612D5364A1288D31A324A4F
:402740001380394B1A68802149020A431A601968364A0A401A601022224B1A6002E00422244B1A600122324B1A603249194B196031490868102303430B60244B1A60154BB5
:402780001D60154B1B685B071CD51F4B1B88002B0CD01F4B1B681B191B78DBB2274A13600134194A1388013B138002E0FF22234B1A60234B1B681F221340082BE5D10F3A89
:4027C000204B1A60024B1C8070BDC046E40200203A060020400F0940000E09400000094040060020880F09403806002060000940FF5FFFFFC80F09403C060020880E094030
:40280000CC0F094040030940E80200206C00094044060020480600203E060020C00F0940080309406400094004020940FFFFFEFF800E0940FF0F0000480F0940400209407A
:4028400008020940800F094004490A68D2B210239A4300011840104308607047000304400004000C014B18607047C046480106400004000C014B18607047C046540106407C
:402880000004000C014B18607047C0464C010640024B18680004000C7047C0464C01064070B504000D0000F04CFCAC40024B1C6000F04BFC70BDC0460800064010B500F037
:4028C00040FC064A116802230B43136000F03DFC18210220FFF7E4FF10BDC04600000640014B18607047C0467801064010B50E4C8023DB042360236823600020FFF7B0FF40
:40290000236823600C22094B1A600020FFF7E8FF3122074B1A60074C2000FFF7A9FF2000FFF7AEFF10BDC0464001064064010640680106401127000010B5064B1B78002BDD
:4029400004D1FFF7D3FF0122024B1A70FFF7B6FF10BDC046EA0200200004000C014B18607047C046C80106400004000C014B18607047C046D40106400004000C014B186016
:402980007047C046CC010640024B18680004000C7047C046CC01064070B504000D0000F0D0FBAC40024B1C6000F0CFFB70BDC0460800064010B500F0C4FB064A1168082351
:4029C0000B43136000F0C1FB18210820FFF7E4FF10BDC04600000640014B18607047C046F801064010B50E4C8023DB042360236823600020FFF7B0FF236823600C22094BD0
:402A00001A600020FFF7E8FF3122074B1A60074C2000FFF7A9FF2000FFF7AEFF10BDC046C0010640E4010640E80106401127000010B5064B1B78002B04D1FFF7D3FF01222C
:402A4000024B1A70FFF7B6FF10BDC046EB020020014B58677047C0460000002010B5040000F06FFB044A1168044B0B40A4031C43146000F06AFB10BD0CE400E0FF3FFFFFE0
:402A800080229201014B1A607047C04600E100E080229201014B1A607047C04680E100E010B50400FFF7F4FF2000FFF7D1FF0320FFF7D4FFFFF7E4FF10BDC046F0B583B09C
:402AC0000C000092C5B2280001F04AFB01900600242802D10122334B1A60009A2100280001F042FA07002F4B1B68012B04D02D4B5B68012B03D101E0002700E000273B00F9
:402B0000283B012B03D80A22264B9A6006E0254B9B68002B02D0013B224A9360009A2100280001F07FF800280BD02F2809D04F2807D01C4B9B68002B03D10122194B5A602D
:402B40000700002F05D02F2F05D04F2F04D1019F02E0019F00E0019F3B00A03B062B01D8104BDC604F2E03D02F2E01D0002F16D10C4B1B68002B02D000220A4B1A60094BBB
:402B8000DB68E41A4F2E02D0074B9C4207D9054B0022DA605B68002B01D0024B5A60380003B0F0BDEC020020CF0700000C4B1B689B001C22134018330A4A126892080321AA
:402BC0000A40D34008490868084A02400A60084A944663441B78DBB2064A13607047C046080F03402800034000000740FFFFFFBFCDF1FF0F0C0F0340034B18688023DB0503
:402C0000184000D001207047000007401F2318401E3B8340014A13607047C04600E100E01F2318401E3B8340014A13607047C04680E100E001BE704770B504000D000F2806
:402C400002D90020FFF7F6FFA40080239B059C4664442068256070BD70B504000D00132802D90020FFF7E6FF1034A40080239B059C4664442068256070BDC04670B504005E
:402C80000E00032902D90020FFF7D4FF132C02D90020FFF7CFFF03252540ED00063500F050FAA408A400074B9C46644421680323AB4099430B003100A9401943216000F095
:402CC00044FA70BD00E400E010B5040006E0084B586800F02DFA074B9C46644480231B029C42F4D8024B9868604300F021FA10BD980000200080FFFF70B582B000F06AF9DE
:402D000000284DD000F01DFA0500264B1A6892001C231A401832244B1B689B0803210B40DA400021214B1960214C2168214B0B4021494A438021C9018C466244D20B013A17
:402D40005205520D1343A0225203134323601B4B1B680193302000F0FBF9194A13688021C9050B4313602668164B1E40002407E00120FFF7A9FF1034A30533430C4A136056
:402D8000EE2CF5D90120FFF79FFFFF239B051E43074B1E60019A094B1A60280000F0D5F902B070BD080F0340280003400C0F03400800074000F800C040420F00300010401A
:402DC00000000740FFFF3FC0F0B583B0040018280BD01C2809D0202807D0242805D0282803D02C2801D0302849D100F0AAF90190FFF702FF002803D0FFF7D8FE012600E098
:402E00000026214A136807218B4313601F4BE3181B78DBB21E4A13601E4A13688B4313601D4803687F22934319001C4BE3181B7813400B430360322000F07AF9182C16D958
:402E4000114F3B680725AB431A0023001C3B9B082B4013433B60322000F06AF93A68AA432300183B9B082C001C4014433C60012E01D1FFF741FF019800F067F902E00020B8
:402E8000FFF7D8FE03B0F0BD080F0340CDF1FF0F0C0F0340100F0340180F0340B4F1FF0F10B5034B1B7B584300F042F910BDC04698000020024A116802230B431360704787
:402EC00010E000E010B5FFF7F5FF034A116801230B43136010BDC04610E000E00002000A014B18607047C04614E000E0012805D1054A116804230B43136004E0024A13684A
:402F000004218B431360704710E000E0024B1868000C01231840704710E000E010B5FFF7F5FF01280BD107E0A300054A9B58002B00D09847013400E00024042CF4D910BD6B
:402F4000FC0200200022014B1A60704718E000E010B5002304E0990000200B4A88500133042BF8D909490F20FFF766FE0120FFF7BDFF074B1869FA21890001F0A5F9FFF72C
:402F8000ADFFFFF7DFFF10BDFC0200201D2F00009800002010B5064B5B69002B04D1FFF7D7FF0122024B5A61FFF78CFF10BDC046FC020020024A8300985899507047C046FA
:402FC000FC020020024B1868800F80077047C0460C020740034B1B68002B01DA012000E00020704700000740014A024B1A6070476588EDAC3800034010B50400FFF7E2FF5E
:40300000A0421AD0144A136803218B431360134B1B689B0F01D17C2001E086204000FFF73FFF00F08EF80D4A13689B009B08A40FA4071C43146000F088F8074B1B68032271
:403040009343064A1268920F01D1023200E001221343014A136010BD140207400C02074010B5040000F06DF8054B1C4005490B68054A134023430B600B6800F066F810BDE7
:403080000404040010020740FBFBFBFF10B5244B1B685B0715D5234B1B685B070ED5224B5969042001401F4C22688A4322605A6982435A619B68002B00D098470420FFF770
:4030C000CFFF174B1B685B0518D5164B1B685B0510D5154B59698022D2001140114802688A4302605969114A0A405A61DB68002B00D098478020C000FFF7B2FF084B1B68B2
:403100005B030CD5074B1B685B0304D5064B1B69002B00D098478020C002FFF7A1FF10BD10020740AC00002014030020FFFBFFFF0230800803D001300238FCD1C046C046AB
:403140007047EFF3108072B6704780F31088704770B50400FFF7F5FF0500102C05D8104A136803218B43136016E0202C07D80C490B6803229343023A13430B600CE0302CF1
:4031800007D807490B6803229343013A13430B6002E00020FFF74EFD2800FFF7D6FF70BD300010400023034A1370034A1360034A138070477A0600202C030020AE06002086
:4031C000224B1A004D321278824209D81A004E321278904204D81A004C321278D2062CD51A004F321278904209D31A0050321278904204D81A004C32127892061DD51A0060
:4032000051321278904209D31A0052321278904204D81A004C32127852060ED51A0053321278904210D31A005432127890420BD84C331B785BB2002B06DB054B18680028C0
:4032400002D00123037000207047C046B00000206406002030B51C4D1C4C824204D1287800282ED004202CE08B4204D12878022827D0062025E0121A5B1AD017D917121839
:403280005B1842404B4092B29BB29A4202D311001A000B00580119014118C9189B00CB1801212D78DB09294008009BB29A424841C0B2002902D09A429B41584207214019DD
:4032C0000840207030BDC0465C06002082060020002801D0014B18717047C0462C030020074B1A00D9895B8ACB1806495B100B80118A938A044ACB185B1013807047C04680
:403300002C0300208406002056060020064B1968002908D0054B1B68002B04D0044AD0890880128A1A80704774060020A80600202C030020503810B50E2813D80B4B0C4A86
:403340001B8812889B1ADA179B185340094A1380094B0A4A1B8812889B1ADA179B185340074A1380FFF7D2FF10BDC04670060020B0060020AC06002052060020780600209B
:403380005E060020074B1968002909D0064B1A68002A05D0054B588A0E330880DB8813807047C04668060020900600202C030020084B1A68002A0BD0074B1B68002B07D0F0
:4033C0001278824201D0012201E01A7801321A707047C0466C06002064060020F0B5B94B85B01B680700039100921E1E00D01E78B54B1B680193002B01D01B780193B34B1A
:4034000000251A78012A03D1B14BDD691B68ED1A012F59D1AE490131CB7F002B29D1AD4BE8B21C0048342488A0421ED8012A1CD1323302931C78A84AA84B12881B88D21AB6
:40344000D317D2185A40A2420FDA029BA44C1A78A44B24881B881B1BDC171B196340934203DAA14BCF77188003E00322984B0133DA77974B0133DB7F012B1DD1954A974880
:40348000130033331978994B00881B881B1AD8171B1843408B420BDC954B91491B88098834325B1AD91712785B184B40934203DD0222874B0133DA77854B24240133DB7F4E
:4034C000022B1ED000241CE0002F0ED1804C631CDB7F023B012B05D8FFF764FE7E4B1F80804B1F80631C00240AE0022FEAD10024FFF758FE784B1C807A4B1C80744B0133D2
:40350000DC777C4B1C70002C07D02000FFF750FF794B1B68002B00D01C70002F05D0002E00D027E1694B1B789EE0744B1B68002B02D01B78002B05D1714B1B68002B01D0D2
:4035400001221A70012E00D080E0624B00991A000832D28F002491422AD99A1DD28F914226D219003331614A08785C4912880988891ACC1709196140814200DD9BE0343324
:403580005B491878564B09881B885B1ADC171B196340834200DD8EE04C480378002B04D1584C2468002C00D0B0E000240133037046490B780800022B45D1464B1A004A3299
:4035C0001288954202D2FFF7EDFD3FE01A0048321288954217D2404A444F12883F883233D21BD7171C78D2197A40A2420BDA1A783F4C3C4B24881B881B1BDC171B196340E6
:40360000934200DA9DE03F4B1B68002B1ED01B78002B1BD02C4B1B68002B02D01B78002B14D101230370314B20241A882A4B1A802F4B1A882B4B1A80254B039A1A60002218
:40364000294B1A8096E0002C00D093E0019B1B0603D4022E19D0012E12D00024A64200D088E03400194B1B78012B00D082E0194B48331B889D4200D87CE0FFF793FD79E058
:40368000019B3340DCB2002C74D00E4B1B68191E00D019781C4B1B681A1E00D01A780D4B009D181DC08F0024854263D90233DB8F9D424ED35EE00024044B1C700A4B1C8098
:4036C00076E7C046A4060020980600207A0600202C030020B00000209C060020B00600207806002060060020AE0600207006002052060020940600206C060020A006002070
:40370000640600207C060020580600202478002C00D14AE7194C2468002C03D02478002C00D042E7164B20241A80164B1980164BDA691A600022154B1A80154B01321A70D4
:4037400036E7124B104A1D80002322240B70136010E00D4B0233DB7F002B0BD1012902D1002A04D006E0022901D1002A02D0FFF719FD4024200005B0F0BDC0469806002013
:403780009C060020600600202C030020AE0600207A060020F7B508AC2488009409AC2488019490420ED3841A994205D25D1AAC4217DB022401251CE0CD1AAC4213DA0324DD
:4037C000022516E0141A994205D3CD1AAC420CDB042403250DE05D1AAC4208DA0124042507E00124E6E7022402E0032400E004242500FF26174F3E70174EB446012C06D16C
:40380000019A8918994219DA00233B7016E0022C05D1009BD218012390420DDC14E0032C05D1019A9B1899420EDD022304E0009BC018904208DA03233B7005E0042D03D15A
:4038400007236246137003E063466419023C1C70F7BDC0464C0600205C06002010B50400FFF7AEFC1349144B84421AD0283C012C17D8124A1278FF2A13D052001032D0B216
:403880001A79824208D1DA1CD27F0C680132D2B2002C06D0227004E00A68002A01D0012414700A68111E00D011780333D977FFF787FC10BD640600202C0300208206002091
:4038C000F7B5944F06003B680C000192002B00D115E11B78002811D1002B00D119E18E4A8E49536AA34201D2E31A01E0DB431B190B80D369E41A019B1C600AE1002B07D14D
:40390000854B5C62864B1B68002B01D001221A70844D2B68002B02D01A78002A23D1824AD18E824A1268A21A8A421CD3002B01D001221A70784BDA89DC617D4B1A807D4BCD
:403940005A887D4B1A80FFF7E1FC022E00D0D9E0784B9A88794B1A80764BDA88784B1A80FFF710FD58E0012E53D16B4E019A736AE31A13603B68734F002B02D01B78002B65
:4039800015D1F2896A4B1A80328A6B4B1A803B68002B01D001221A702B68002B01D001221A70624BF4611C60FFF7B0FC18E0022B16D13B68002B01D000221A702B68002B8E
:4039C00001D000221A70594B1C605F4B1A68002A06D0012113780B4200D080210B4313703B68002B02D01A78002A0BD12A68002A08D01278002A05D0002B01D001221A70C4
:403A0000FFF784FCF289514B1A80328A504B1A807FE0022E00D07CE03B683F4E002B0ED01B78012B24D80AD1474B1A68002A06D0022113780B4200D080210B431370002271
:403A4000B31CDA772B68934200D01A70374BF189374A1C601180318A374A394B1180718A364A1180B28A1A80FFF750FCFFF78AFCB31CDB7F002B33D12B68002B30D01B7840
:403A8000002B2DD0284B31001800294AF58912883330521BD517047852190E316A40A24233DC254A4D8812883433521BD5171C7852196A40A24228DC204A8C881288007859
:403AC000121BD4171219624082421EDC1A781C4BC9881B885B1AD9175B184B40934214DCF1891A4A1B4B1180318A194A1180718A194A1180B28A1A80FFF7F2FB09E00028D1
:403B000007D0FDE6012E04D12FE70122B31CDA77E6E7F7BDA40600202C030020800600206406002058060020B000002088060020B00600203A03002078060020540600205D
:403B4000720600207C060020980600207006002052060020860600208C060020054B1B681A1E00D01A782F23904200D8203318007047C046A406002070B504000D00002828
:403B80000DD0FFF715FC2000FFF7D4FB1F4B1B68002B00D01C702000FFF79AFB05E01C4B1B78FF2B01D0FFF7B1FB2000FFF756FE184C002809D122680300002A00D01378BF
:403BC0009D4202D02800FFF7C9FF002D18D12368002B15D01B78002B12D00F4B1B68002B00D01D700D4B1B68002B01D000221A70064B1A6800239A4200D01370084A1371FA
:403C00002368002B00D01D7070BDC0466C0600204C060020A4060020980600207C0600202C0300200023F0B5BC4C89B00793230003911100BA4A323313602200B94B3432EE
:403C40001A6023002200B84D36332B60B74B37321A6023002200B64F38333B60B54B39321A602300220002902000B34E3A333360B24B3B321A600E30042200F0C7FC07AACE
:403C800003990298FFF71CFEFF23AD4A1370AD4A137032683B00A24E002A04D1029B012B00D02AE135E01278012AF7D1029A012A00D022E12A68002A02D01278002A04D1FD
:403CC0001B68002B01D001221A70E589278A9E4C9E4A23002833197818789D4B12881B880190009128003900FFF754FD944B59341B782370FF2B0CD033681A1E00D01A883C
:403D0000884B19680B1E00D00B8839002800FFF7A1FA8D48814A030059331B78FF2B00D1E5E0079B059313003C33197800294CD17E490968002902D00978002943D10300A8
:403D400015002B331B78018F448F00203D3528707F48DBB200880139013C834215D8E61AB04212D2794E3688B34204D901263C3216702E7009E0CF1ABE4206D3B14204D350
:403D800001263C32167002222A70704A128893421BD8C91A8A4218D2604A834206D9130001213C3319703D3203230AE0E31A98420BD3844209D3130001213C3319700423D0
:403DC0003D32137001E003221A70544C23003C331B78012B01D000209AE023003D331B78581EC2B20392012A08D85A4B574A1D88574B1B88ED1A584B1B880AE0033B012B64
:403E00000DD8554B524A1D88504B1B88ED1A514B1B8811885B1ADA179B18534001E000252B00494AD18F0492059A8A4203D8220002213C3202E0220003213C321170220007
:403E40003C3211780229C6D1002B03D1013111701E002BE00026EA17A9185140B14225D09FB28AB23D483E4E97420FD309020840190000F029FA46433A4B4043F3182F2684
:403E800070431E1A2D235E43F60D0FE01B02184000F01AFA4643334B4043F3182F2670431E1A2D205A234643F60D9E1B049B002D01DA293300E02A331B78DBB29E4206D8B9
:403EC0001A4B1B68002B06D01B78002B03D0230003223C331A703C342378022B00D07AE7039B580004236038C0B2237010E03C321378012B00D06EE703E0029B002B00D02F
:403F000069E7064B00201A003D333C32107018700299FFF731FE09B0F0BDC0462C03002074060020A8060020A406002098060020640600206C0600207C0600205806002019
:403F40004C06002082060020B0000020B006002078060020520600207006002000FFFF000AB00000BD2AFFFF0023F0B5714D87B005932B000E0011006F4A3E3313602B00D1
:403F80006E4A403313602B006D4A423313602A006C4B43321A602B006B4A443313602A006A4B45321A602B002A0007002800684C46332360674B47321A600E30042200F002
:403FC00025FB310005AA3800FFF77AFCFF23624E5A49337023688C46574A2C005A490396002B00D185E01B78012B00D081E0012F00D08BE0524B1B68002B02D01B78002B08
:4040000004D10B68002B01D0012119701368E089218A1A1E00D01A8863461D682B1E00D02B884E4DEE790296EE7A0196029E0096FFF7B0FB039B1878FF285AD023004833D1
:404040001B78002B01D1831CDBB2020003215A400A4028D09B0001401943CBB21B2B05D06C2B03D0B12B01D0C62B05D12200012149321170282011E0392B05D0E42B03D040
:40408000932B01D04E2B05D12200012149321170292003E02200002049321070220000214A32117018E03035297800293AD0260049363178002935D020004A302D780178D4
:4040C0008D4202D9013101702CE023004B3302701A701000130032702200483213700300283B012B07D949342378002B1CD0FFF70DF9002018E022004B321378022B13D8EF
:40410000002049340133207013700DE0002FF0D12B004A331F702B004B3548331F702F70380001E00020D7E73900FFF725FD07B0F0BDC0462C03002074060020A8060020CA
:40414000A406002098060020640600206C0600207C060020580600204C060020B00000200023F0B52E4C87B0059323002D4E733333602300029222002B4F74333B602B4B46
:4041800075321A6022002A4B76321A602300294A77331360220005002000274B783201911A600E300422029900F030FA0396214E012D06D92000029912300431042200F08D
:4041C00025FA05AA01992800FFF77AFB059A01992800FFF703F9FFF741FB002807D1230073331B78AB4202D02800FFF7B7FC002D0FD1230073331B78002B0AD03B6802340C
:40420000E577002B00D01D703368002B01D000221A70039B1B68002B00D01D7007B0F0BD2C030020A406002098060020640600206C0600207C0600205806002001005622BE
:4042400010B5184800F0E2F90021174A174B126859628A4200D01170154A1268002A01D000211170134A11680022914200D00A701149DA610A60114A1268002A01D000219D
:4042800011700F4A11680022914200D00A700D491A600A70991CCA77190049310A701A7110BDC046B0000020A40600202C030020980600207C06002088060020580600204C
:4042C0006C0600207A060020002243088B4274D303098B425FD3030A8B4244D3030B8B4228D3030C8B420DD3FF22090212BA030C8B4202D31212090265D0030B8B4219D3A9
:4043000000E0090AC30B8B4201D3CB03C01A5241830B8B4201D38B03C01A5241430B8B4201D34B03C01A5241030B8B4201D30B03C01A5241C30A8B4201D3CB02C01A52413A
:40434000830A8B4201D38B02C01A5241430A8B4201D34B02C01A5241030A8B4201D30B02C01A5241CDD2C3098B4201D3CB01C01A524183098B4201D38B01C01A524143098E
:404380008B4201D34B01C01A524103098B4201D30B01C01A5241C3088B4201D3CB00C01A524183088B4201D38B00C01A524143088B4201D34B00C01A5241411A00D201469D
:4043C000524110467047FFE701B5002000F0F0F802BDC0460029F7D076E7704703460B437FD4002243088B4274D303098B425FD3030A8B4244D3030B8B4228D3030C8B42A7
:404400000DD3FF22090212BA030C8B4202D31212090265D0030B8B4219D300E0090AC30B8B4201D3CB03C01A5241830B8B4201D38B03C01A5241430B8B4201D34B03C01AEA
:404440005241030B8B4201D30B03C01A5241C30A8B4201D3CB02C01A5241830A8B4201D38B02C01A5241430A8B4201D34B02C01A5241030A8B4201D30B02C01A5241CDD240
:40448000C3098B4201D3CB01C01A524183098B4201D38B01C01A524143098B4201D34B01C01A524103098B4201D30B01C01A5241C3088B4201D3CB00C01A524183088B4268
:4044C00001D38B00C01A524143088B4201D34B00C01A5241411A00D201465241104670475DE0CA0F00D04942031000D34042534000229C4603098B422DD3030A8B4212D330
:40450000FC22890112BA030A8B420CD3890192118B4208D3890192118B4204D389013AD0921100E08909C3098B4201D3CB01C01A524183098B4201D38B01C01A52414309E7
:404540008B4201D34B01C01A524103098B4201D30B01C01A5241C3088B4201D3CB00C01A524183088B4201D38B00C01A5241D9D243088B4201D34B00C01A5241411A00D277
:404580000146634652415B10104601D34042002B00D54942704763465B1000D3404201B5002000F005F802BD0029F8D016E770477047C046014B18687047C0466C010020BC
:4045C0000E4B70B500251E000D4CE41AA410A54204D0AB00F35898470135F8E700F084F9084B00251E00084CE41AA410A54204D0AB00F35898470135F8E770BDF448000033
:40460000F4480000F4480000FC480000002310B59A4203D0CC5CC4540133F9E710BD03008218934202D019700133FAE77047000000000000202020202020202020202020ED
:404640002020202020202020202020202020202020202020202020202020202020202020202020202000000010470000C8030020E0030020000000000000000080280000AD
:40468000310005070700640064000000AA100000AA10000094010020900100208000000032003C002D2D05011E020000C4090000FFFFFFFFFF280000560808080814141404
:4046C000181E2814181E28030507090314181E2814181E280305070903053232003232000A2D2D0F030303030000141E1E000300640064005000D007E8036400FA000500F4
:4047000032000A00F02829303F4849909F0000000001024008010440000104400401044000000F001000000010040C000001024008010440000104400401044000F0000062
:40474000080000000C03090000010240080104400001044004010440000F0000040000000802060000010240080104400001044004010440F00000000200000004010300C0
:40478000000102400801044000010440040104400F0000000100000000000000000102400801044000010440040104400000F0002000000014050F000000024008000440E7
:4047C00000000440040004400F0000000100000000000000000002400800044000000440040004400000000F4000000018061200000002400800044000000440040004406A
:4048000000F00000080000000C0309000002024008020440000204400402044000F00000080000000C03090000020240080204400002044004020440000F00000400000001
:404840000802060000020240080204400002044004020440F00000000200000004010300000202400802044000020440040204400F00000001000000000000000001024097
:40488000080104400001044004010440000000F0800000001C0715004E0700000E0700001807000022070000320700003C07000046070000000000017C92000000000003E8
:4048C000F824010000004001E093040000004003C027090000008001009F240000008003003E490000430000F8B5C046F8BC08BC9E4670479D010000A9030000F8B5C0465C
:40490000F8BC08BC9E467047750100002049000090000020E0000000480500000000000000000000F9140000010000000000C05D80BB000030000000006CDC0204040400BC
:404940005612121212232314181E2814181E28030507090314181E2814181E2803050709020A323200323200642D2DC80203020A1401321E1E0028004006B00450002003D5
:40498000C8001400C8001400C8006400F02829303F4849909F00FF3FFFFF00000000000000000000000000000000000000000000000000000000000000000000E54800003A
:4049C0000000000000000000000000000000000000000000000000000000000000000000000000000000000000000000000000000000000000000000000000000C0100208A
:404A00000000000000000000000000000000000000000000000000000000000000000000000000000000000000000000000000000000000000000000000000000000000076
:404A40000000000000000000000000000000000000000000000000000000000000000000000000000000000000000000000000000000000000000000000000000000000036
:404A800000000000000000000000000000000000000000000000000000000000000000000000000000000000000000000000000000000000000000000000000000000000F6
:404AC00000000000000000000000000000000000000000000000000000000000000000000000000000000000000000000000000000000000000000000000000000000000B6
:0200000490303A
:0200000058D2D4
:0200000490402A
:4000000000000000000000000000000000000000000000000000000000000000000000000000000000000000000000000000000000000000000000000000000000000000C0
:0200000490501A
:0C00000000021B0111AB00011B186A7DFF
:0200000490600A
:0100000001FE
:00000001FF